:020000040000fa
:080000000002040000000000f2
:020000040000fa
:040008005a03000097
:020000040000fa
:04000c005a03000093
:020000040000fa
:040010005a0300008f
:020000040000fa
:040014005a0300008b
:020000040000fa
:040018005a03000087
:020000040000fa
:04001c005a03000083
:020000040000fa
:040020005a0300007f
:020000040000fa
:040024005a0300007b
:020000040000fa
:040028005a03000077
:020000040000fa
:04002c005a03000073
:020000040000fa
:040030005a0300006f
:020000040000fa
:040034005a0300006b
:020000040000fa
:040038005a03000067
:020000040000fa
:04003c005a03000063
:020000040000fa
:040040005a0300005f
:020000040000fa
:040044005a0300005b
:020000040000fa
:040048005a03000057
:020000040000fa
:04004c005a03000053
:020000040000fa
:040050005a0300004f
:020000040000fa
:040054005a0300004b
:020000040000fa
:040058005a03000047
:020000040000fa
:04005c005a03000043
:020000040000fa
:040060005a0300003f
:020000040000fa
:040064005a0300003b
:020000040000fa
:040068005a03000037
:020000040000fa
:04006c005a03000033
:020000040000fa
:040070005a0300002f
:020000040000fa
:040074005a0300002b
:020000040000fa
:040078000803000079
:020000040000fa
:04007c005a03000023
:020000040000fa
:040080005a0300001f
:020000040000fa
:040084005a0300001b
:020000040000fa
:040088005a03000017
:020000040000fa
:04008c005a03000013
:020000040000fa
:040090005a0300000f
:020000040000fa
:040094005a0300000b
:020000040000fa
:040098005a03000007
:020000040000fa
:04009c005a03000003
:020000040000fa
:0400a0005a030000ff
:020000040000fa
:0400a4005a030000fb
:020000040000fa
:0400a8005a030000f7
:020000040000fa
:0400ac005a030000f3
:020000040000fa
:0400b0005a030000ef
:020000040000fa
:0400b4005a030000eb
:020000040000fa
:0400b8005a030000e7
:020000040000fa
:0400bc005a030000e3
:020000040000fa
:0400c0005a030000df
:020000040000fa
:0400c4005a030000db
:020000040000fa
:0400c8005a030000d7
:020000040000fa
:0400cc005a030000d3
:020000040000fa
:0400d0005a030000cf
:020000040000fa
:0400d4005a030000cb
:020000040000fa
:0400d8005a030000c7
:020000040000fa
:0400dc005a030000c3
:020000040000fa
:0400e0005a030000bf
:020000040000fa
:0400e4005a030000bb
:020000040000fa
:0400e8005a030000b7
:020000040000fa
:0400ec005a030000b3
:020000040000fa
:0400f0005a030000af
:020000040000fa
:0400f4005a030000ab
:020000040000fa
:0400f8005a030000a7
:020000040000fa
:0400fc005a030000a3
:020000040000fa
:040100005a0300009e
:020000040000fa
:040104005a0300009a
:020000040000fa
:040108005a03000096
:020000040000fa
:04010c005a03000092
:020000040000fa
:040110005a0300008e
:020000040000fa
:040114005a0300008a
:020000040000fa
:040118005a03000086
:020000040000fa
:04011c005a03000082
:020000040000fa
:040120005a0300007e
:020000040000fa
:040124005a0300007a
:020000040000fa
:040128005a03000076
:020000040000fa
:04012c005a03000072
:020000040000fa
:040130005a0300006e
:020000040000fa
:040134005a0300006a
:020000040000fa
:040138005a03000066
:020000040000fa
:04013c005a03000062
:020000040000fa
:040140005a0300005e
:020000040000fa
:040144005a0300005a
:020000040000fa
:040148005a03000056
:020000040000fa
:04014c005a03000052
:020000040000fa
:040150005a0300004e
:020000040000fa
:040154005a0300004a
:020000040000fa
:040158005a03000046
:020000040000fa
:04015c005a03000042
:020000040000fa
:040160005a0300003e
:020000040000fa
:040164005a0300003a
:020000040000fa
:040168005a03000036
:020000040000fa
:04016c005a03000032
:020000040000fa
:040170005a0300002e
:020000040000fa
:040174005a0300002a
:020000040000fa
:040178005a03000026
:020000040000fa
:04017c005a03000022
:020000040000fa
:040180005a0300001e
:020000040000fa
:040184005a0300001a
:020000040000fa
:040188005a03000016
:020000040000fa
:04018c005a03000012
:020000040000fa
:040190005a0300000e
:020000040000fa
:040194005a0300000a
:020000040000fa
:040198005a03000006
:020000040000fa
:04019c005a03000002
:020000040000fa
:0401a0005a030000fe
:020000040000fa
:0401a4005a030000fa
:020000040000fa
:0401a8005a030000f6
:020000040000fa
:0401ac005a030000f2
:020000040000fa
:0401b0005a030000ee
:020000040000fa
:0401b4005a030000ea
:020000040000fa
:0401b8005a030000e6
:020000040000fa
:0401bc005a030000e2
:020000040000fa
:0401c0005a030000de
:020000040000fa
:0401c4005a030000da
:020000040000fa
:0401c8005a030000d6
:020000040000fa
:0401cc005a030000d2
:020000040000fa
:0401d0005a030000ce
:020000040000fa
:0401d4005a030000ca
:020000040000fa
:0401d8005a030000c6
:020000040000fa
:0401dc005a030000c2
:020000040000fa
:0401e0005a030000be
:020000040000fa
:0401e4005a030000ba
:020000040000fa
:0401e8005a030000b6
:020000040000fa
:0401ec005a030000b2
:020000040000fa
:0401f0005a030000ae
:020000040000fa
:0401f4005a030000aa
:020000040000fa
:0401f8005a030000a6
:020000040000fa
:0401fc005a030000a2
:020000040000fa
:040208005a03000095
:020000040000fa
:04020c005a03000091
:020000040000fa
:040210005a0300008d
:020000040000fa
:040214005a03000089
:020000040000fa
:040218005a03000085
:020000040000fa
:04021c005a03000081
:020000040000fa
:040220005a0300007d
:020000040000fa
:040224005a03000079
:020000040000fa
:040228005a03000075
:020000040000fa
:04022c005a03000071
:020000040000fa
:040230005a0300006d
:020000040000fa
:040234005a03000069
:020000040000fa
:040238005a03000065
:020000040000fa
:04023c005a03000061
:020000040000fa
:040240005a0300005d
:020000040000fa
:040244005a03000059
:020000040000fa
:040248005a03000055
:020000040000fa
:04024c005a03000051
:020000040000fa
:040250005a0300004d
:020000040000fa
:040254005a03000049
:020000040000fa
:040258005a03000045
:020000040000fa
:04025c005a03000041
:020000040000fa
:040260005a0300003d
:020000040000fa
:040264005a03000039
:020000040000fa
:040268005a03000035
:020000040000fa
:04026c005a03000031
:020000040000fa
:040270005a0300002d
:020000040000fa
:040274005a03000029
:020000040000fa
:040278005a03000025
:020000040000fa
:04027c005a03000021
:020000040000fa
:040280005a0300001d
:020000040000fa
:040284005a03000019
:020000040000fa
:040288005a03000015
:020000040000fa
:04028c005a03000011
:020000040000fa
:040290005a0300000d
:020000040000fa
:040294005a03000009
:020000040000fa
:040298005a03000005
:020000040000fa
:04029c005a03000001
:020000040000fa
:0402a0005a030000fd
:020000040000fa
:0402a4005a030000f9
:020000040000fa
:0402a8005a030000f5
:020000040000fa
:0402ac005a030000f1
:020000040000fa
:0402b0005a030000ed
:020000040000fa
:0402b4005a030000e9
:020000040000fa
:0402b8005a030000e5
:020000040000fa
:0402bc005a030000e1
:020000040000fa
:0402c0005a030000dd
:020000040000fa
:0402c4005a030000d9
:020000040000fa
:0402c8005a030000d5
:020000040000fa
:0402cc005a030000d1
:020000040000fa
:0402d0005a030000cd
:020000040000fa
:0402d4005a030000c9
:020000040000fa
:0402d8005a030000c5
:020000040000fa
:0402dc005a030000c1
:020000040000fa
:0402e0005a030000bd
:020000040000fa
:0402e4005a030000b9
:020000040000fa
:0402e8005a030000b5
:020000040000fa
:0402ec005a030000b1
:020000040000fa
:0402f0005a030000ad
:020000040000fa
:0402f4005a030000a9
:020000040000fa
:0402f8005a030000a5
:020000040000fa
:0402fc005a030000a1
:020000040000fa
:040300005a0300009c
:020000040000fa
:040304005a03000098
:020000040000fa
:040308005a03000094
:020000040000fa
:04030c005a03000090
:020000040000fa
:040310005a0300008c
:020000040000fa
:040314005a03000088
:020000040000fa
:040318005a03000084
:020000040000fa
:04031c005a03000080
:020000040000fa
:040320005a0300007c
:020000040000fa
:040324005a03000078
:020000040000fa
:040328005a03000074
:020000040000fa
:04032c005a03000070
:020000040000fa
:040330005a0300006c
:020000040000fa
:040334005a03000068
:020000040000fa
:040338005a03000064
:020000040000fa
:04033c005a03000060
:020000040000fa
:040340005a0300005c
:020000040000fa
:040344005a03000058
:020000040000fa
:040348005a03000054
:020000040000fa
:04034c005a03000050
:020000040000fa
:040350005a0300004c
:020000040000fa
:040354005a03000048
:020000040000fa
:040358005a03000044
:020000040000fa
:04035c005a03000040
:020000040000fa
:040360005a0300003c
:020000040000fa
:040364005a03000038
:020000040000fa
:040368005a03000034
:020000040000fa
:04036c005a03000030
:020000040000fa
:040370005a0300002c
:020000040000fa
:040374005a03000028
:020000040000fa
:040378005a03000024
:020000040000fa
:04037c005a03000020
:020000040000fa
:040380005a0300001c
:020000040000fa
:040384005a03000018
:020000040000fa
:040388005a03000014
:020000040000fa
:04038c005a03000010
:020000040000fa
:040390005a0300000c
:020000040000fa
:040394005a03000008
:020000040000fa
:040398005a03000004
:020000040000fa
:04039c005a03000000
:020000040000fa
:0403a0005a030000fc
:020000040000fa
:0403a4005a030000f8
:020000040000fa
:0403a8005a030000f4
:020000040000fa
:0403ac005a030000f0
:020000040000fa
:0403b0005a030000ec
:020000040000fa
:0403b4005a030000e8
:020000040000fa
:0403b8005a030000e4
:020000040000fa
:0403bc005a030000e0
:020000040000fa
:0403c0005a030000dc
:020000040000fa
:0403c4005a030000d8
:020000040000fa
:0403c8005a030000d4
:020000040000fa
:0403cc005a030000d0
:020000040000fa
:0403d0005a030000cc
:020000040000fa
:0403d4005a030000c8
:020000040000fa
:0403d8005a030000c4
:020000040000fa
:0403dc005a030000c0
:020000040000fa
:0403e0005a030000bc
:020000040000fa
:0403e4005a030000b8
:020000040000fa
:0403e8005a030000b4
:020000040000fa
:0403ec005a030000b0
:020000040000fa
:0403f0005a030000ac
:020000040000fa
:0403f4005a030000a8
:020000040000fa
:0403f8005a030000a4
:020000040000fa
:0403fc005a030000a0
:020000040000fa
:100400004f8a20000e7f22000e01880000000000ad
:10041000000020000000e000020032000001200087
:100420002002880014000700a40007000000e0007c
:1004300003003a00203022000100200002003700b3
:100440000000200001002000810f70000100320038
:1004500014000700000020000000e000020032004d
:100460000000020000000000002402000000000064
:100470000040da000000fe004440a9008000200097
:100480000000e000030032000020200090018800fe
:100490004440a800000006008a1f78008b1f7800e7
:1004a00000000600a1028800800478000000eb0034
:1004b0001f003700e284440054a0b4009905ba003c
:1004c000e284440054a0b4009906ba00e2844400d7
:1004d00054a0b4000006eb00476fde00fd07b20039
:1004e000ae018800636ce10003003a00eaff0700f8
:1004f0000000eb000e003700606ce10008003a00dd
:10050000004deb000a05e800020039003420ec0041
:100510000af0a0008b05e900f9ff3e000400370057
:100520006168e100010032000086eb000b0007006b
:1005300019c7ba001905ba000e04e00003003a001a
:100540000a00e000dbff3a0000000600fe07b200f0
:10055000ae0288008a047800f5ff37000cd0a300b3
:10056000e20f4d001c00390089027800354dba00b9
:100570000a05e800020039003420ec000af0a0006f
:100580008b05e9000f003200254dba000a05e8008e
:10059000020039003420ec000af0a0008b05e900cd
:1005a000080032000c00e0000600320015cdba0051
:1005b0000a05e800020039003420ec000af0a0002f
:1005c0008b05e9008984e80054a0b4000b00e0002a
:1005d000e2ff3a00000006009902ba00055d7800cb
:1005e0008b05e900f7ff3200c82ade00055d7800c0
:1005f0008b05e900f3ff32000c00e000f1ff320050
:1006000019ddba00eeff37003205040000000000db
:100610003600f800809fbe00829fbe00849fbe000f
:10062000869fbe003200f8003400f8001000200061
:10063000a001880000202000900188000000fa003e
:100640008680a9009680a900600c80004900de0029
:100650006140600000c0ea00614060000080fb0073
:10066000610060004900dd00720c8000f1df2f00a6
:100670008100610001007000700c880000202e00d5
:1006800041002000811007008680a9009680a80004
:100690000080fa003400f9003200f9004f03be0078
:1006a0004f02be004f01be004f00be003600f900f1
:1006b000004006000040da000000fe0000000500d7
:1006c000889fbe008a9fbe008c1f780069000700cb
:1006d0007000330003866c006450e1002e0032008d
:1006e0006420e100330032006150e1002f0032004d
:1006f0006120e1003100320085855500eb07b00034
:100700000900200008042000050037000804440008
:1007100089844c000a0031000603430087834b00a4
:100720000001530081815b00f8ff33000203be002b
:100730000800a0000804440089844c00f6ff39003a
:10074000c639dd0083017300010032001300200070
:100750008904d1000884d3000998a3000500320061
:100760000800a7000300a0008904d1000884d3007a
:100770008b05e8008904d1000884d3000001eb0058
:100780000281d2001500070001f0a1000cf0a700c3
:1007900001f0a000480037006420e1004a00320068
:1007a0000801be000200be00f7ff37006120e10033
:1007b000450032006000b800f3ff37000000200061
:1007c00001f82700f0ff37004f89de008201780032
:1007d000500037006011b8005e0037008100200033
:1007e000618055000b003d000b00200061fe2f00d2
:1007f0000100e1001d00340082817100610164008c
:100800008904d1000884d3000000e800faff3a0010
:1008100071002000610064000300700002006000ad
:100820000900320061044400e0844c000988a500fe
:10083000050032008b05e8006808e10002003a007c
:100840008904d1000884d300f20f20000258e1008f
:1008500005003d00c75ddd00f907b2008980750025
:1008600008007800000006000bf827008b007800d5
:10087000000005000004be00650007000003be0084
:100880000405be000200be0061000700844f750031
:10089000000006000200be006450e10005003600c2
:1008a0006420e100020036000968a30001003a005c
:1008b0000800be000160a0004f0678004f05be0092
:1008c0004f04be0000000600f0ff2f00f1ff2700dc
:1008d000f9ff37006022b800060220000000d000b7
:1008e0008180d2000482d2008582d2000000a00064
:1008f0000202520083825a000300310002024200c9
:1009000083824a000000a1000603e900f3ff3a00d9
:1009100000000600881f7800030478000300e00050
:1009200007003d0060001000e08018006001190021
:10093000e081190002003b0001f02d0003003700a8
:100940000400070008f0a70001f0a0004f047800a1
:1009500000000600889fbe008a9fbe0000827000d3
:100960000402710004827100260032000004be00ff
:100970000200be006011b8006b0920009502200043
:100980000182cf000a0039000541b1000082cf008a
:10099000070039000541b1000982cf000400390089
:1009a0000541b1000882cf00010039000541b100c6
:1009b00005425200120032000a003b0082817100a1
:1009c000610164008100d1000080d3008984d300dc
:1009d0000884d3008b05e8000442e800f7ff3a00e2
:1009e000070037000804440089844c0000004800d8
:1009f000818048008b05e9000442e900f9ff3a00d4
:100a000076ff07004f05be004f04be000000060041
:100a1000c70ade00f107b200f50fb200080032008d
:100a2000e1cf4200020032000170a0002400050066
:100a3000810f700001003200040805004400050029
:100a4000810f700002003a00140005008502e900e1
:100a50000000400081c04800fcff3b000170a00086
:100a600024000500881f780002047800080178003f
:100a7000c4000700080040004f0478000000060092
:100a80000000fa00881f780000047800ea8157000f
:100a90003fb9970088007800205320000700070026
:100aa0000000e000020035008040eb000174780097
:100ab0004f0478000080fa00000006006200fa008f
:100ac000889fbe008a1f78000005780081047800a6
:100ad000020478008300780080f92f000f004000a6
:100ae000770107009a979f00a9979f000000eb00ed
:100af000b09f9f001885fb008a04fb000a05ea00ee
:100b00004f55de0050022000808f54000d0032004f
:100b1000e10f55000b003a000a01780088007800c8
:100b20002f9097009f91970003000100a0979f00ce
:100b30000000e0008e0032003f9897000000e800bf
:100b4000b09f9f000a04440050022000808f540090
:100b5000040032000900e000e6ff3a003f989700e9
:100b6000840037000000eb00909f9f00809f9f0053
:100b7000f0979f00e0979f00d0979f00c0979f003d
:100b800007003700c189200001005000000040002c
:100b90000189200061007800df9897000100700053
:100ba000d09f9f00880478000904780038457800b9
:100bb0008a00fb00c0892000790007000000e000e7
:100bc000f0ff3a00a1c2b300814f55000e003a0079
:100bd000cf8897000180e900c08f9f001000780047
:100be000c09f9f000000e00005003d000000ea00fb
:100bf000c09f9f005f9897000020a000d09f9f009b
:100c00000904e8000f003700c09f9f000000eb00c0
:100c100005003700f2ff2700820f5000020032006b
:100c20006a01b90002804000090478008804780055
:100c3000b900fb000103b100e98f5000f5ff360059
:100c4000c09f9f00e0c2b300984f10000200320026
:100c50000080eb0019003700a0c2b300d84f10008d
:100c600007003a00cf8897000180e900c08f9f00fd
:100c700010007800a09f9f000804e80010003700d3
:100c80000000eb00a09f9f0088007800050037005f
:100c9000f3ff2700830f5000020032006a02b90000
:100ca0000400410001047800880078003101fb0055
:100cb0000203b100e90f5100f5ff3600a09f9f002d
:100cc000984478008900fb008088200034000700e9
:100cd0000000e000020032000804e80001003700d4
:100ce0008044eb00c97f9f0080c6b30080cf5400d2
:100cf00004003a0098cf14000a003a006640500001
:100d000006003700c0c6b30080cf540005003a008b
:100d100098cf140003003a0065404000c07f9f0058
:100d20000804e8001801fb00e3fb2f008f8141005d
:100d300081f92f008f804000a0f92f000f004000a4
:100d4000e10007000000e00009003a00e1fb2f008d
:100d50008f804000a0f92f000f0040001c0007000a
:100d60000000e000020035000804e80061ff3700e1
:100d70000080eb004f0578004f04be000080fa00b1
:100d8000000006008001780002003700b1597800a9
:100d90000201e9000200e000fcff3a00000006004a
:100da000020037000304e000060032000001780072
:100db00002007800b041780081cf5100f9ff3a007d
:100dc000010037000001eb0002007800000006007f
:100dd0000400fa00889fbe008a9fbe008c1f780026
:100de0000004780001067800f80d9000780090006b
:100df00080855500080890008085550018089000ef
:100e0000808555002808900080855500380890009e
:100e1000808555004808900080855500000222001a
:100e200090bf9f0000032300a0bf9f000810900008
:100e30000028a30015003a000b00e0001300340066
:100e40000b0578008a047800e20f55000100360097
:100e500029002000c801900009017800ee805700a9
:100e60005800900003000100500498000000e000ca
:100e70008c0032006808900009004000600c980067
:100e8000090555004240a900eeff3c0078019000a2
:100e90000200e0000c003400c80190008c007800d3
:100ea0005800900003000100500498008080eb007f
:100eb0000000e0007c003200e8089000780090001c
:100ec00000804000600c9800880c90000900e00051
:100ed0001100340009057800e28f5400010036004b
:100ee0002a002000c80190000a017800ec80570019
:100ef0005800900003000100500498000000e0003a
:100f000068003200680890000a004000600c9800f9
:100f10008a845400edff3700180990000200e000b9
:100f20000c003400c8019000e800900058009000c8
:100f300003000100500498008080eb000000e000f6
:100f400059003200e8089000180890000080400026
:100f5000600c9800a80c90000900e000110034001b
:100f600009057800e28f5400010036002a002000b5
:100f7000c80190000a017800ec80570058009000ea
:100f800003000100500498000000e000450032001a
:100f9000680890000a004000600c98008a845400a1
:100fa000edff3700380990000200e0000e00340029
:100fb000e80090001808900080804000c801900070
:100fc0005800900003000100500498008080eb005e
:100fd0000000e00034003200e8089000380890007b
:100fe00000804000600c9800c80c90000900e000f0
:100ff0001100340009057800e28f5400010036002a
:101000002a002000c80190000a017800ec805700f7
:101010005800900003000100500498000000e00018
:1010200020003200680890000a004000600c980020
:101030008a845400edff3700081090008000eb0018
:101040000028a300180032000b00e0001600340056
:101050008b04780009057800e28f54000100360007
:101060002a002000c80190000a017800ee80570095
:101070005800900003000100500498000000e000b8
:1010800008003200680890000a004000600c9800d8
:101090008a8454004240a900eeff3c008000eb002f
:1010a000010037008080eb00010078004f067800d7
:1010b0004f05be004f04be000080fa00000006008d
:1010c0000108780000000600889fbe008a1f780093
:1010d00000047800824478000305780070c4b300ef
:1010e00080cf54000a003c0000c0e90080cf5400cb
:1010f0000f003d0050c2b30080cf540035003200d5
:101100007c40400080cf540035003a000800370092
:1011100010c6b30080cf5400050032003000350007
:10112000b0c9b30000c04400e24f50002c003e00a4
:1011300028619000c0c4b300804f510006003a00ff
:101140001101780068005100800878005001be004d
:101150004000be0005003700110178006400510016
:10116000800878001000be00a3030700009cbe00aa
:101170000294be00b8009000780090000100e000ea
:1011800002003d00d1c2b300080037008810900073
:101190000118a30002003200b1c2b30003003700ff
:1011a0000108a3000400320001c2b30001757800f9
:1011b0000000e800700498007800900000054500e9
:1011c0006a0498008900fb000800780010000700fe
:1011d0000b00370078009000097578000600370092
:1011e00078009000000545000904e00001003a0085
:1011f00059c2b300094d78000000e800700498005f
:101200000000eb004f0578004f04be000000060010
:101210002f04b000889fbe008a9fbe008c9fbe0036
:101220008e1f78000007780081f79f003e04be0003
:101230002e05be005e0890000000e00002003d00a8
:1012400060002000500f98008e00780020fb2f00d7
:101250000f0040003a020700e20f50000a003a0077
:1012600030002000100f9800b1c9b3000ff09700b4
:101270008140400000812000e1cf50000d003e0081
:10128000c08020000b0037000000e0000f00340099
:1012900030002000100f9800b1c9b3000ff1970083
:1012a0008140410080812000e1cf500001003e00dc
:1012b00040812000ee009000b0487800b0687800cf
:1012c0001040780090409800f30037000000e000e4
:1012d00005003a0022fb2f000f01410000197800a1
:1012e0008001eb00e70037006022b8006033b800ef
:1012f0000800be000a01be00870207000000e000ef
:1013000001003d000bf0a200705927009f98970044
:101310000088b900026a280013002000e2020700da
:10132000640650009c9f9f0013003b00630616005c
:10133000c0ff2f00000666008c01ea00939f9f000b
:10134000cd8120000800be000a01be000700370062
:101350000c08a300030032003d02be002d03be00b6
:10136000730307000c86d100e88646000c00e000fd
:10137000f7ff3c00180037000c00e00018003200b6
:10138000c0ff2f00000666009c9f9f00cd812000bb
:101390006000b8000200200003ff230007003700b0
:1013a0000c08a300030032003d02be002d03be0066
:1013b0005f0307000c86d100e88646000c00e000c1
:1013c000f7ff3c000002be000203be000800be00a2
:1013d0000a01be005a0207000004be000205be005a
:1013e000de08900060c6b3000ff29700804f5200f5
:1013f000040032006000200062c4b300824f52003b
:1014000002003a009f9a97006a80420081004000e3
:10141000f1b79f0001037800f30f5300020034007e
:1014200037012000f7b79f0000c3b300c0779f00cb
:1014300056fb2f000f0343000e007800a0b79f005b
:10144000060778003d0037000800be000a01be0014
:10145000080307000006be007fb197006801510035
:10146000f2b79f004240a9000c0034002d03070092
:101470000002be000203be000800be000a01be005a
:10148000a10307006022b80046782d0077192400d8
:10149000270307000004be000205be00e800470065
:1014a0008e0020000802be000a03be00b4b79f00f1
:1014b000c5b79f00d6b79f00e7b79f000c01be00dd
:1014c000010478000c003700a40020000500200073
:1014d000c0fd2f000f004000840107006fa8970097
:1014e000ffa897000fb197009fb1970005c3b30005
:1014f000056441000001be00e00f5100e08f59007b
:10150000030034000e07e900e10f4700eeff3a0048
:10151000880078003fb49700cfb497005fb597007c
:10152000efb597000200370000c3b3008060780079
:101530000e07e900fcff3b00688740007fb397007f
:101540000600e000070034006022b8006033b800f5
:101550000800be000a01be00f40107000000e00020
:10156000b9ff3c000e0378002fb7970051fb2f0006
:101570008f804000010353009f9b970067804300ca
:10158000909f9f00020037000603e9000000e90079
:10159000010178008200780003c3b300b1cf1100cd
:1015a000f9ff3200909f9f00de09900061c6b300f2
:1015b0000ff29700814f52000300320061c4b30064
:1015c000814f520002003a000000e8000a00370094
:1015d0001000200051c6b3008ff2970081cf520057
:1015e000050032000540780050c4b2000080fb00c6
:1015f0000000e9004f00de0083014000868f5100ab
:1016000001003400860178000300e0001d00350071
:1016100000c3b300868f510006003d0062c279000e
:101620006940400041c3b300814f520001003c00bb
:10163000694050008300e90081004100010037004b
:10164000840178000302e90001037800a1427800d8
:1016500080cf5200faff320091c3b300814f500097
:1016600001003a00054be8000400e00005003d00e1
:101670000201e9008301e8001f9b97000603e800d0
:10168000969f9f008ff397008700fb001f9a97009b
:101690000e007800060007004f0778004f06be00d6
:1016a0004f05be004f04be002f04b100000006002d
:1016b000f0874700889fbe008a9fbe008c9fbe00b7
:1016c0008e1f780000047800814478000205be0077
:1016d000040678000b00e00002003c001b00200024
:1016e0002a8a200060c6b30080cf54000e0032006a
:1016f00060c4b30080cf54000b00320070c6b3004a
:1017000080cf54000300320070c4b30080cf540077
:1017100081003a00e40f46007f0035005808900031
:10172000800f56007c003d000c06e80060c6b30048
:1017300080cf54001000320060c4b30080cf54004a
:101740000d003200081090000038a30004003a0099
:1017500058089000808f550001003d005b0c9800f8
:10176000580890000c005000500c980002003b00fc
:101770000000eb00500c980018089000e800900062
:101780000c00e00026003c0002c3b3008270780029
:101790000000e800100c9800d80890000100e0005c
:1017a00003003c00881090000138a30005003200bf
:1017b000e8009000e2c2b300827078000000e80008
:1017c000100c9800580890008c00ea00810f50001f
:1017d00001003d000006ea008c00ea00210c9800a0
:1017e000000646005c0c98008b0f56000100340088
:1017f0000b0678003c0c9800e80090001808900058
:10180000008040000c0178008a0078005dfd070030
:10181000580890000c0650004c0c980090003700bf
:101820008c8f550018003d00008040000b017800af
:101830008a00780053fd07001808900000804500da
:10184000100c98008b0556002b0c9800d8089000bf
:101850000100e00003003c00881090000138a30064
:1018600006003200e8009000e2c2b3008270780007
:10187000380890000000e800300c980058089000ec
:10188000400c980076003700008040000c01780082
:101890008a0078003bfd0700180890000000460011
:1018a000100c98008c855500d80890000100e000cd
:1018b00003003c00881090000138a30005003200ae
:1018c000e8009000e2c2b300827078000000e800f7
:1018d000100c980058089000808f550001003400cb
:1018e00080057800e8009000180890000080400013
:1018f0008c0045000b01780022fd070018089000bd
:101900000b004000100c9800580890008b05500008
:101910002b0c98005200370018089000e800900047
:101920009a7078000000e800100c9800d808900029
:101930000100e00003003c00881090000138a30083
:1019400005003200e8009000e2c2b3008270780027
:101950000000e800100c9800580890000000e0001b
:10196000100034008b05e900808f55000100340021
:1019700080057800e8009000180890000080400082
:101980008a00e8000b017800fefc070018089000b0
:101990000b004000100c9800580890008b05500078
:1019a0002b0c9800e8009000180890000080400080
:1019b000095878000007e8000c00e000040035003a
:1019c000b1c2b300014878008e04780004003700eb
:1019d000d1c2b300014878008e0478000c06ea00fa
:1019e0007d8557008006eb0009003700a20020002b
:1019f0008c00780072805700310007007fb097009c
:101a00008fb89700016d7800000678008d06e80019
:101a10000c00e000f5ff3c000d00e00009003a007a
:101a20008e04780000c3b300805c780005003700a6
:101a30008d06e900fc80570061c07e0002c3b30040
:101a4000825c40000d00e000f9ff3c00e8009000df
:101a5000180890000080400080845400390c9800e1
:101a60000810900074006000f00f50000e003a0063
:101a7000980890007800900000804000a80890002e
:101a800001004000b808900001004000c808900024
:101a900001004000f8089000810f500002003d0056
:101aa00000805000000c98004f0778004f06be00e1
:101ab0004f05be004f04be000f01b100000006003c
:101ac0008002780001037800110009000203d800a9
:101ad00080017800830a78000299b900020153005e
:101ae000920298000500780000000600881f780028
:101af0008a9fbe008c9fbe00000478000205be00d5
:101b00000406be000401be000a00be00e600070095
:101b1000008cbe000c01be00fd0107000005550051
:101b200081855d002a0498003b0498000800780035
:101b30004f06be004f05be004f04780000000600af
:101b4000889fbe0000047800e68440001900d000a1
:101b50004500de00f27f2000820f500010003a00a6
:101b6000000ceb00990478006f81640020002000d5
:101b70001b003a00210190000200e00018003a002a
:101b8000110190000200e00015003a001000200052
:101b90001100e00012003200200020001000370089
:101ba0000000e00004003a00010078000e00070089
:101bb0000000e00008003c00f2002800190161006c
:101bc00001fe2300810c710021c02f00010c400098
:101bd0000080eb0002003700000ceb000000eb007f
:101be0004f04be0000000600e6004000110178002e
:101bf00005002800850261006f01610082087800fd
:101c0000020032001200200011003700a0019000f5
:101c1000120020000300e0000d003a009001900047
:101c20000300e0000a003a001000e00008003a005b
:101c30003600370064034000960878008001780081
:101c4000530b780090097800040878007001510067
:101c5000110278000400e000f6ff320013003700a4
:101c600064024000140378004f33de00838141009a
:101c70008308730080017800d3037800cf3bde0037
:101c80001403780006034300068a730013027800e9
:101c900004024200100378004f33de008609720010
:101ca00090017800038841000201e9009101780069
:101cb000ef8f5100eaff36001000370080017800f6
:101cc000530378004f33dd001002d1000408730085
:101cd0006402400094037800cf3bdd001303d10081
:101ce00086897300110378004f33dd009401d10021
:101cf000030a73009108d1000201e8009101780005
:101d0000ff8f5100edff3e00ef8861009188720067
:101d100002007800000006008f1fd10000020700bb
:101d20008f87e9000000e00000000600809feb00c4
:101d3000fb0107008f87e9000000e00000000600bb
:101d40002800fa00889fbe008a9fbe008c9fbe00bc
:101d500003866b008f0007006400e100440032003e
:101d60006408e1004a0032006100e10046003200f0
:101d70006108e10049003200ec0647006000b8004d
:101d80003d02be003d03be00f48657006011b8005e
:101d90003d04be003d05be007d0320000b00370062
:101da0000000a0008d06e90013003200040242008a
:101db00085824a0006034b0087834b0000004000e9
:101dc00081804800020149008381490008025200d5
:101dd00089825a000a035b008b835b00f0ff3b00a3
:101de0000802420089824a000a034b008b834b00a1
:101df0008d06e900edff3a0084827200868272004f
:101e0000f707b2008782720001003200150020003f
:101e10001e0490003e0b900006035400e63fb00005
:101e20000368a300070032000000a7000500a0001f
:101e30008301d1000281d3008180d3000080d300d0
:101e40000603e8008301d1000281d3008180d30022
:101e50000080d3000002eb000482d20021000700c2
:101e600003f0a1000cf0a70003f0a0005d00370014
:101e7000640247006408e100570032003400be00ed
:101e80003401be00f6ff37006108e1005200320065
:101e90006011b8006000b800f1ff370003ff2700b1
:101ea00002002000fbff3700839f68000100e00074
:101eb00002003d0060001000e08018000300e00018
:101ec00002003d0060011100e081190081fa070065
:101ed0004f00e00002003b0060001000e0801800ae
:101ee00000000600180020005700200008045300de
:101ef0000d003d000600200097fc2f000740e10088
:101f00001e00340084827200610260008301d100ef
:101f10000281d3008180d3000080d3000804e80050
:101f2000f8ff3a00470020006104600005047400d7
:101f3000040464000d00320061004000e0804800ad
:101f400060014900e081490003b8a50007003200a4
:101f50000603e8006538e10004003a008301d1007f
:101f60000281d3008180d3000080d300f87f20005d
:101f70000830e10003003500080378006000b80075
:101f80006011b8004433dd00f300b2008301730038
:101f900000000600680447000294be000094be00e2
:101fa000fc0447008694be008494be0009007800bb
:101fb000a401070008007800a2010700990078003a
:101fc000814f70000b003b000800be007d01070040
:101fd0004f00b10003003700f3ff2700f2ff2f008e
:101fe0006110b9004f06be004f05be004f04be0091
:101ff0000080fa00000006008103780084fa0700e0
:102000000001be006000b8000478a30013003a008d
:102010006220e10015003e000d0039008301d1006f
:102020000281d3008180d3008301d1000281d300db
:102030008180d3008301d1000281d3008180d3004d
:102040000538b000c42add00f300b20083817200bd
:1020500007f0a70003f0a00000000600f3ff270030
:10206000f2ff2f006110b900fbff370003ff2700cc
:10207000f7ff37001400fa00889fbe008a9fbe0059
:102080008c9fbe000004be000205be006800470031
:102090000a90be000890be006a0107000070a70009
:1020a0000bf0a100304320009e029000808252007d
:1020b000b0fe2f000028e10011003d00b0fc2f0011
:1020c0000028e100150034001e0990008e089000e1
:1020d0007e0090000501b0000201d1008180d30094
:1020e0000080d3008502e800fbff3a000b00e0000f
:1020f000bcff3b0060001000e0801800b9ff370013
:10210000f0ff2f00f1ff27000b00e000b5ff3b00c0
:102110000100280000002000b2ff37006000b80076
:10212000b0ff37004f89de00820178006c01370074
:102130002800fa00889fbe008a9fbe008c9fbe00c8
:1021400003866b0093ff07000028a30064003a0099
:102150000128a30067003a000008a30062003a00cb
:102160000108a30065003a001e009000be08900020
:1021700081064000ed3fb100f4805700ee01900071
:10218000111ab8008e099000311bb8009e0990000a
:10219000311cb800511db800f485570046000700f7
:1021a000fe0190003a0007008b85e8003e00070022
:1021b0008e09900040000700ee01900034000700f7
:1021c0008b85e800380007008e099000400007006a
:1021d0009e0990001b18b800890440000a85480039
:1021e000fe019000340007008b85e80038000700ee
:1021f000ee019000300007008e0990001b18b80017
:10220000890440000a8548000a98a30008003a00a3
:102210000402420085824a0006034b0087834b007c
:1022200008044c0089844c000a054d008d06e90025
:1022300084827200850273004c3add0085027200d0
:102240000100320015002000443ade001400b20004
:102250004538de00cb45dd000b007000c540de00d8
:10226000cb4ddd008b8070004549de00cb55dd0095
:102270000b017100c551de000d03780019ff070046
:1022800003f0a1000cf0a70003f0a00055ff3700f9
:102290001b18b8008502400006834800e0834b000d
:1022a00060044c00070037001b18b800060340000c
:1022b00087834800faff37001b18b80087034000e7
:1022c00008844800e0844c0060054d0000000600d2
:1022d0001b18b8000804400089844800faff370042
:1022e0000108a3003cff3a005800be005801be00a0
:1022f000e3ff37000008a30037ff3a000904780025
:10230000f9ff37000000000007f0a20006003700c8
:10231000020ab900001bb9000200b80081004200a7
:1023200081004300000006002800fa00889fbe00dc
:102330008a9fbe008c9fbe000706780087866900d2
:102340000c003b00030478008704780008f0a1002b
:1023500009f0a100840f5000858f5800860f5900a6
:10236000890f5c00030033000cf0a20001003a006a
:102370000cf0a10007ff07006400e1005f003200dd
:10238000780147006408e100610032006c014700f9
:10239000748557003200be001201be003a04be0030
:1023a0001a05be001e039000be0a9000850353006c
:1023b00006003d000004fd008104fd000205fd0053
:1023c0008305fd008703ea00050378000df8a300ec
:1023d0000400320060041400e0841c0060051d004d
:1023e000e0851d006022b8007d0320000d38e1006b
:1023f0008006eb000b0039004433dd00f300b2002f
:102400008301730039003700848272000d02780066
:10241000e10664008b85d1000a85d3008984d3004e
:102420000884d3008703e900f7ff3b000800400061
:10243000898048000a0149008b81490004003b0063
:1024400060001000e080180060011900e0811900b0
:102450000358a300090032008d827200848272004a
:10246000610260008301d1000281d3008180d3002a
:102470000080d3000603e8001b0037000348a300d8
:1024800017003a000600e000170034000603e900d8
:102490000d00a300000048008180480002014900af
:1024a000838149000348a3000f003a000600e000c2
:1024b000090034000603e900000040008180480064
:1024c000020149008381490001003a000003eb004a
:1024d0000348a300f5ff32006022b8000200370075
:1024e00084827200618266007efe070003f0a10014
:1024f0000cf0a70003f0a000bafe3700640147000b
:102500006408e10002003a000df8a300b2fe3a00b0
:102510003200be001201be00b2fe37000000000013
:10252000889fbe008a9fbe008c9fbe000404be0030
:102530000605be00809fbe00829fbe002f000700e0
:10254000040678000800be000a01be002b00070048
:10255000840678004f03be004f02be008d4f760008
:102560007fb0970013003300f0ff2f008b8f6b00bc
:1025700006003b000d0666000c00a7000a003700ad
:1025800007f0a600100020000a003700880f520054
:10259000898f5a008a0f5b008b8f5b000300390024
:1025a0001000200001003e000000200007f0a700fe
:1025b0000000ea004f06be004f05be004f04be00fb
:1025c00000000600e48240001078a30007003200fb
:1025d000640240001178a3003400be001401be0064
:1025e000040032000330a700000006003500be00e2
:1025f0001501be000330a0000000060005ff270003
:1026000005826100070032000428e1000100320069
:10261000240005000600070001003a004400050000
:102620000408050002000700f9ff3a001400050045
:102630006f82610081027000850271008502720064
:1026400000000600800078005002be005003be006b
:102650004439de00f700b200f37f2000030161007f
:10266000090032000218e10016003a0085017200ec
:1026700083017300838173000008200015003a0075
:1026800040002000130037008501720083017300b1
:102690008381730005003a0004a8be0006a8be00ae
:1026a000100020000b0037000201e9000402420084
:1026b00085824a0006034b0087834b000748a3002e
:1026c000f9ff32000740a00004a8be0006a8be0023
:1026d0002000200080009800920098000000060072
:1026e000881f7800030478000300e00007003d0025
:1026f00060001000e080180060011900e0811900fe
:1027000002003b0001f02d00030037000400070029
:1027100008f0a70003f0a0004f04780000000600b6
:10272000889fbe0000827000040271000482710064
:102730002400320036432000c50020008383cf00f0
:102740000a0039000541b1008283cf00070039003b
:102750000541b1008183cf00040039000541b1007b
:102760008083cf00010039000541b10085c35300cb
:102770006022b800120032000a003b00848272001e
:10278000610260008301d1000281d3008180d30007
:102790000080d3000603e8008743e800f7ff3a0013
:1027a0000700370000004000818048000201490016
:1027b000838149000603e9008743e900f9ff3a00f5
:0c27c000c8fd07004f04be00000006002a
:020000040000fa
:1027cc00252e0000326600000000000020000000f2
:020000040000fa
:1027dc000400fa00204798005f060700c00e200096
:1027ec00760607003f0607002e4090000080fb0095
:1027fc00720607003b060700610607005606070035
:10280c00d00e20006d0607003606070010c0b3007e
:10281c0082060700004f78003206070058060700b2
:10282c001e4078000080fa00000006000400fa0048
:10283c002047980048060700c00e20005f060700de
:10284c00280607002e4090000080fb005b06070066
:10285c00240607004a0607003f060700d00e20009a
:10286c00560607001f0607000040eb006b0607002a
:10287c000080fb00000f78001e0078004800dd008f
:10288c00000f780010c0b300640607000080fb0046
:10289c001e0f700013060700390607001e00780093
:1028ac000080fa00000006000600fa00404798007d
:1028bc0029060700c00e2000400607000906070085
:1028cc004e4090000080fb003c0607000506070008
:1028dc002b06070020060700d00e20003706070045
:1028ec00000607000040eb004c0607000080fb00d0
:1028fc008000eb00008fbe001e01be004818dd00fa
:10290c00c810de00810070004810dd00008fbe0092
:10291c00f40507000040eb00400607000080fb00b8
:10292c008000eb001e1f70001e9770001e01be0081
:10293c004818dd00c810de00810070004810dd0072
:10294c00008fbe00e705070010c0b3003306070078
:10295c000080fb008000eb001e1f70001e977000b3
:10296c00e0050700060607001e00be000080fa0006
:10297c00000006000200fa00004f78001e407800ac
:10298c00aaff07000080fa00000006000400fa000d
:10299c00204798002e409000a4ff0700000f7800fd
:1029ac001e007800c800dd004800de0000807000ca
:1029bc000080fa00000006000200fa00004f7800c8
:1029cc001e407800f1ff07000080fa0000000600ae
:1029dc000200fa00004f780011479800de0507004e
:1029ec00c00e2000f5050700be0507001e80fb0089
:1029fc00f2050700bb0507001e4090000080fb009d
:102a0c00ee050700b7050700dd0507000080fa009a
:102a1c00000006000000fa00881f780080c8b30090
:102a2c00daff070020438800a0c8b300e2ff0700cc
:102a3c0030438800c0c8b300dfff07004043880064
:102a4c00e0c8b300d1ff07005043880000c9b300b1
:102a5c00d9ff07006043880020c9b300d6ff0700e8
:102a6c007043880040c9b300d3ff0700804388003f
:102a7c0060c9b300d0ff07009043880080c9b30041
:102a8c00cdff0700a0438800a0c9b300caff070010
:102a9c00b0438800c0c9b300c7ff0700c04388001b
:102aac00e0c9b300c4ff0700d043880010cab300cc
:102abc0047ff0700c18720008048780010ceb30084
:102acc00bdff0700f043880030ceb30040ff070085
:102adc00018820008048780040ceb3003cff0700fe
:102aec000080fb004404dd0050ceb30038ff07002b
:102afc000080fb006f00600008007000104488002c
:102b0c0060ceb30032ff07000080fb004404dd0000
:102b1c0050ceb3002eff07000080fb004400de0007
:102b2c00004078000080fb00080070002044880002
:102b3c0070ceb30026ff070080407800608820002c
:102b4c00014878004f0478000080fa00000006006d
:102b5c000200fa0040cfb3001dff0700004f7800c1
:102b6c00c0cfb3001e406000004fe8009e407800cc
:102b7c0040cfb30096ff07000080fa00000006006b
:102b8c002400fa00889fbe008a9fbe008c9fbe0066
:102b9c00a0cfb30044ff0700008fbe001e00be0094
:102bac004c09dd004404de0008047100c48cde0016
:102bbc00088fbe001e00be00cd09dd004306de00fe
:102bcc000c867100c38ede00204380008000eb0079
:102bdc0000004000818048000002560081825e00a7
:102bec00304380006101b90002a8b90000037800ed
:102bfc000498b90000007800000343000220b800dc
:102c0c000103430086007800c50add004b02de009c
:102c1c0004827200640f98004b89de00720f9800da
:102c2c006e0a9000fe0a9000240798003507980061
:102c3c001e00be004c09dd00c402de0085027100de
:102c4c00050f9800c489de00130f98002043800004
:102c5c008000eb000e0a90009e0a900000015200ca
:102c6c0081815a001e00be004c0add00c402de0049
:102c7c0085027200250f9800c48ade00350f98007b
:102c8c00204380008000eb002e0a9000be0a9000ca
:102c9c000000520081805a00009ab90004027800aa
:102cac00028bb90086027800050242000010b800c1
:102cbc000102420084007800c40add004c05de00ed
:102ccc000a857200cc8dde0040438000cf80de0090
:102cdc0000d9b900020178000a8ab9008401780091
:102cec00030141000050b80001014100820078004e
:102cfc00c209dd004e01de0002817100021798004e
:102d0c004e8ade00141798000e1190009e11900050
:102d1c0042079800530798002e019000be019000c6
:102d2c004e009000de0090000200400083804800be
:102d3c003040880041408800304080004140800095
:102d4c006509b900020178006002b90084017800bd
:102d5c0003014100530020000300b80001014100b1
:102d6c00820078000008b0000180b000480add0045
:102d7c00c801de0083017200430f9800c88ade0090
:102d8c00550f98004e089000de0890008bf6070057
:102d9c00600798007107980002002000832c240023
:102dac006e009000fe00900042f60700600798004d
:102dbc00710798006e009000fe0090004f06be0058
:102dcc004f05be004f04be000080fa000000060054
:102ddc002800fa00889fbe008a9fbe008c9fbe0010
:102dec00d0cfb30091fe07008000eb00008fbe0037
:102dfc00324080004340800000402d00e1ff2f0056
:102e0c00020040008380480020079800310798009a
:102e1c001e00be004e09dd00c201de008301710000
:102e2c004e01dd0010448000cf80de00c400dd00c8
:102e3c0000002000000351008183590020448000d1
:102e4c006101b9002e0090000380b90000027800e7
:102e5c003e0090000280b9000000780000024200a1
:102e6c002e0090000200b80001024200840078009d
:102e7c000001530081815b00000024000100200050
:102e8c000200400083804800c109dd004f01de00d4
:102e9c0002817100620798004f8ade007407980067
:102eac0060882000104078000001fb00cf91de000c
:102ebc002e0090000380b900000278003e009000c4
:102ecc000280b90000007800000242002e00900041
:102edc000200b8000102420084007800c60add003e
:102eec004a04de0008847200ca8cde0000882000d0
:102efc00104078000081fb008001eb002e00900058
:102f0c000380b900000278003e0090000280b900f6
:102f1c0000007800000242002e0090000200b80071
:102f2c000102420084007800c509dd004b01de007f
:102f3c0002817100020f98004b8ade00140f98007a
:102f4c0000002800010020000e0a90009e0a90004c
:102f5c00040140008581480002c8b90000027800d5
:102f6c000898b90000007800000242000240b80046
:102f7c0001024200840078004609dd00ca02de002e
:102f8c0085027100250f9800ca89de00330f980066
:102f9c0000002000010220002e099000be099000c4
:102fac000202400083824800f04380006101b900b6
:102fbc0002a8b900000378000498b900000078005a
:102fcc00000343000221b80003034300860178008c
:102fdc000000220001002000020040008380480015
:102fec00420add00ce01de0083017200430f98001f
:102ffc00ce8ade00550f98007e019000ce0990001d
:10300c000390b900000178005e0a9000ee02900077
:10301c0005a0b9000000780000014100ee0190000d
:10302c004e0a90000418b80001014100820078009b
:10303c002007980031079800200798003107980066
:10304c002e009000be0090004109dd00cf02de0092
:10305c0085027100650f9800cf89de00730f980010
:10306c002e009000be009000410add004f06de00ed
:10307c000c067200cf8ede00fe0a90000ca8b90080
:10308c0000017800ee09900003e8b9000000780018
:10309c00000141006e0a90000c20b80001014100b3
:1030ac0082007800c90add004705de000a8572003f
:1030bc00c78dde00c0872000104078000080fb0028
:1030cc008000eb0000d9b900020178000a8ab9002f
:1030dc0084017800030141000050b8000101410057
:1030ec0082007800cc09dd004401de000281710011
:1030fc0002179800448ade00141798002e009000e6
:10310c00be0090000e1190009e1190000200500025
:10311c008380580020079800310798002e009000fb
:10312c00be009000440add00cc01de008301720079
:10313c0023179800cc8ade00351798002e109000cb
:10314c00be1090009df507004007980051079800ad
:10315c0002002000034824004e009000de00900086
:10316c0054f507004f06be004f05be004f04be00cd
:10317c000080fa00000006003c00fa00889fbe00a8
:10318c008a9fbe008c9fbe0070cfb300c6fd0700a7
:10319c0020079800310798003040800041408000a3
:1031ac008181d1000081d30000602000f1ff2f004d
:1031bc0002004000838048004007980051079800a7
:1031cc004e009000de0090004e09dd004205de004e
:1031dc000a057100c28dde004e009000de009000ea
:1031ec00ce09dd004204de0008847100c28cde00d2
:1031fc0008d8b900000178000ac8b90000007800ae
:10320c00000141000850b800010141008200780023
:10321c00450add004b06de000c067200cb8ede008c
:10322c00a04380006101b90002e8b90000027800f7
:10323c000c98b90000007800000242000260b8004f
:10324c000102420084007800600798007107980022
:10325c006007980071079800904380006101b900e5
:10326c004e0090000380b900000278005e009000d0
:10327c000280b90000007800000242004e0090006d
:10328c000200b800010242008400780000014000f6
:10329c00818148006e009000fe009000000041000b
:1032ac008180490060079800710798006e009000bb
:1032bc00fe0090004e0bdd00c202de0085027300a2
:1032cc00050f98004289de00120f980080438000a1
:1032dc00cf80de00c000dd00000020000e0a900050
:1032ec009e0a90000400400085804800600798000a
:1032fc0071079800704380006102b9004e00900085
:10330c00de0090004e09dd004203de000603710072
:10331c00260f9800c289de00330f98004e009000f3
:10332c00de0090004e09dd004203de000603710052
:10333c00460f9800c289de00530f98003e0b900098
:10334c004e09900002b0b90000017800de0990002f
:10335c002e0b90000698b900000078000001410087
:10336c00ae0990004e0b90000618b8000101410008
:10337c0082007800c309dd004d01de00028171007e
:10338c00620f98004d8bde00760f98006e0990004e
:10339c0002a8b90000017800fe0990000498b90059
:1033ac0000007800000141006e0b90000620b80070
:1033bc000101410082007800cd09dd004301de00ef
:1033cc000281710002179800438ade0014179800de
:1033dc00604380006101b9004e0090000380b90089
:1033ec00000278005e0090000280b90000007800b6
:1033fc00000242004e0090000200b80001024200a0
:10340c00840078008180d1000080d3000e119000e0
:10341c009e1190000200400083804800c289de00ab
:10342c00631798004f8ade00741798006e11900095
:10343c00fe11900042079800530798004e0190002f
:10344c00de01900000002800010020000202400074
:10345c0083824800504380006101b80002a8b90083
:10346c00000378000498b9000000780000034300c2
:10347c000220b8000103430086007800410add00f9
:10348c00cf01de0083017200031f9800cf8ade009b
:10349c00151f98000e1990009e1990004207980075
:1034ac00530798004e009000de009000e00f500093
:1034bc00e08f580002003a006000b800940037001a
:1034cc002e009000be00900060001000e0801800fc
:1034dc000001be006e009000fe009000c40add00ea
:1034ec004c02de0004827200241798004c8bde0024
:1034fc00361798002e109000be109000000051005e
:10350c008180590052c320000289b9000201780061
:10351c006002b900840178000301410053c320000c
:10352c000300b80001014100820078000200200075
:10353c0003352c00021f4000039748001e00be00fc
:10354c00e00f5000e08f58000a0035001e00be004e
:10355c0000024000818248004e009000de00900086
:10356c000001be000400be00d7f40700008fbe00af
:10357c00080037004e009000de0090000001be00f5
:10358c001e00be00d0f407000000400081804800ff
:10359c00008fbe00d04380006102b9001e00be0047
:1035ac00c309de004d0bdd004301de000201730098
:1035bc001e00be004d0bdd004300de00000073005a
:1035cc00c308de00009bb90006037800028cb9002a
:1035dc0088037800070343000010b8000103430080
:1035ec00860078004309dd004d00de00000071000c
:1035fc00cd08de0000a9b90002017800048bb900e7
:10360c0086017800030141000020b800010141004f
:10361c0082007800440add00cc01de0083017200d8
:10362c00231f9800cc8ade00351f98002e199000bd
:10363c00be19900042079800530798001e00be0068
:10364c00ce09dd004200de0000807100c208de0001
:10365c000001be00c0438000cf80de00009ab9009c
:10366c0004027800028bb900860278000502420041
:10367c000010b8000102420084007800c30add008b
:10368c004d02de0004827200441f98004d8bde0058
:10369c00561f98004e199000de1990006207980092
:1036ac00730798004e019000de0190006e009000b0
:1036bc00fe0090000201400083814800b04380006e
:1036cc00cf80de0002004000838048004c0add0001
:1036dc00c401de008301720043179800c48ade0027
:1036ec00551798001e00be004e119000de11900080
:1036fc000200400083804800008fbe001e00be0008
:10370c0031f4070002002000832c2400e9f30700a9
:10371c004f06be004f05be004f04be000080fa00ed
:10372c00000006000400fa00004f780011479800d2
:10373c00224798001e41900011802000824878009a
:10374c000068ef001e409000e14f5000030036006f
:10375c0000c8bf000034a00000e8b7002e40900065
:10376c000004e000060032001e409000e14f5000c3
:10377c0003003a0000c8bf000024a00000e8b70016
:10378c000041eb008040eb000040eb00180107000b
:10379c0000502300c1002000390407008040eb00da
:1037ac0030c0b300ff00070000942100110020007e
:1037bc00330407008040eb0030c0b300f900070071
:1037cc0000942100110020002d0407008040eb0024
:1037dc0030c0b300f3000700009620000100200069
:1037ec00270407008040eb0020c0b300ed00070069
:1037fc0000c8bf000054a000d200070070c0b30086
:10380c0004e8b700400007000700070020c0b30021
:10381c0003e8b70003c8bf000024a000c9000700dc
:10382c000080fa00000006000000fa0010c0b3008f
:10383c00c400070000d0270001002000100407007e
:10384c000080fa00000006000000fa0020c0b3005f
:10385c00bc00070000d0270001002000080407006e
:10386c000080fa00000006000a00fa00004f9800e1
:10387c00114f98000000eb00000f780000042000ae
:10388c0010079800400120002007980040052000f8
:10389c003007980001c8bf009e48900080cf5000b0
:1038ac000300390001c8bf000040e900104f980028
:1038bc001e4890000080fb00000040006e00780065
:1038cc00804078000e48900000c040000074a000ba
:1038dc009c0007000080fa00000006000000fa00bf
:1038ec004180200091407800b0cfb30000c0600050
:1038fc0004e8b70004c8bf000034a0009100070022
:10390c000080fa00000006000000fa0004c8bf00a6
:10391c000024a00004e8b70004c8bf000034a000d5
:10392c00880007000080fa00000006000000fa0082
:10393c004180200091407800d0cfb30000c06000df
:10394c0004e8b70004c8bf000034a0007d000700e5
:10395c000080fa00000006000000fa0004c8bf0056
:10396c000014a00004e8b70004c8bf000034a00095
:10397c00740007000080fa00000006000000fa0046
:10398c004180200091407800e0cfb30000c060007f
:10399c0004e8b70004c8bf000034a00069000700a9
:1039ac000080fa00000006000000fa0004c8bf0006
:1039bc000004a00004e8b70004c8bf000034a00055
:1039cc00600007000080fa00000006000000fa000a
:1039dc0080c1b3005b0007000080fa000000060005
:1039ec000000fa00c0c1b300560007000080fa00c6
:1039fc00000006000000fa0003c8bf000014a0007d
:103a0c0003e8b70003c8bf000024a0004d00070066
:103a1c000080fa00000006000000fa00318020004f
:103a2c0091407800d0cfb30000c0600003e8b7002d
:103a3c0003c8bf000024a000420007000080fa0069
:103a4c00000006000000fa0003c8bf000004a0003c
:103a5c0003e8b70003c8bf000024a000390007002a
:103a6c000080fa00000006000000fa0031802000ff
:103a7c0091407800e0cfb30000c0600003e8b700cd
:103a8c0003c8bf000024a0002e0007000080fa002d
:103a9c00000006000200fa00004f78001e4178007a
:103aac0021802000824878000041eb0011c0b30057
:103abc000040eb004e0007000080fa0000000600fa
:103acc000600fa0020479800210798002e4090002d
:103adc0067406000204798002e4090000080fb005b
:103aec004300dd00004078000064a00015000700d2
:103afc000040eb00004f7800060037001e80fb00f2
:103b0c00ae009000008040001040780006000700d6
:103b1c001e4fe8001e407800e74f5000f7ff3600bc
:103b2c000080fa00000006000200fa00004f780046
:103b3c0011c0b3001e407800090007000080fa0095
:103b4c00000006000200fa00004f78008040eb00f5
:103b5c001e407800020007000080fa0000000600fa
:103b6c000400fa0020479800314798002e4090003e
:103b7c006f4f60002e4090000080fb004400de0080
:103b8c0010479800be4090001e40900005000700b2
:103b9c00be4090001e407800020007000080fa0032
:103bac00000006000200fa00004f78001147980050
:103bbc0012c0b3009e4090001e4078000c0007001d
:103bcc0000012000010020002d0307000041eb0044
:103bdc009e4090001e407800050007000028200041
:103bec0001002000260307000080fa0000000600f8
:103bfc000600fa0020479800314798004247980089
:103c0c00ae409000400020000008dd00004f78001e
:103c1c003e4090000004e000010032001e04a000b1
:103c2c004e4090000004e000010032001e24a00071
:103c3c0002c8bf000004e000010032001e34a000e6
:103c4c0045010700e00720005c0107001e80fb0017
:103c5c005a0107004a0107000080fa000000060024
:103c6c000200fa00000f7800040037001e007800f4
:103c7c00104078001e0fe800abff07001e00780014
:103c8c00104078000004e000f8ff3a000080fa00d1
:103c9c00000006000400fa00100798001e009000b7
:103cac00c300de00500c22000008b8004408de00ff
:103cbc00004f780001c3b3001ec040009aff0700fc
:103ccc009e80fb0080c12f000088b90000007800a6
:103cdc009e00900000804000100798001e0090008d
:103cec00c200de00b04721000008b8000100d1007e
:103cfc00004f780001c3b3001ec040008aff0700cc
:103d0c009e80fb00c0f92f000088b90000007800ed
:103d1c009e00900000804000100798009e009000cc
:103d2c00d0cc2c000008b8004308de00004f78000f
:103d3c0001c3b3001ec040007bff07009e80fb0048
:103d4c0060ff2f000088b900000078009e009000f2
:103d5c0000804000100798001e0090000040780082
:103d6c000043b00070ff07000080fa00000006005e
:103d7c000000fa008ae1a8008ac1a900811d800018
:103d8c0000fc2f00008060007000b300801d8800d4
:103d9c00e11e800000fc2f00008060003000b300aa
:103dac00e01e880000812a000028880000402300c3
:103dbc001028880070062000402888000080fa0037
:103dcc00000006000200fa00004f78001128800065
:103ddc0000102000008060000000e00002003200b3
:103dec001e00fb00202888000080fa00000006005e
:103dfc000200fa00000f780000000000112880007b
:103e0c0000102000008060000000e000fbff32008a
:103e1c000028800066006000e60f500003003a00a6
:103e2c009e0078002128880003003700f00f200046
:103e3c001e006000202888000080fa0000000600a8
:103e4c000200fa00000f7800050037001e00780011
:103e5c00104078000000fb001e0fe800e4ff070094
:103e6c001e007800104078000004e000f7ff3a00d4
:103e7c000080fa00000006000400fa001007980009
:103e8c001e009000c300de00500c22000008b80099
:103e9c004408de00004f78001e80fb000003b000d9
:103eac00d3ff07009e80fb0080c12f000088b90063
:103ebc00000078009e0090000080400010079800e1
:103ecc001e009000c200de00b04721000008b800c0
:103edc000100d100004f78001e80fb000003b000f1
:103eec00c3ff07009e80fb00c0f92f000088b900bb
:103efc00000078009e0090000080400010079800a1
:103f0c009e009000d0cc2c000008b8004308de00c6
:103f1c00004f78001e80fb000003b000b4ff0700c8
:103f2c009e80fb0060ff2f000088b9000000780025
:103f3c009e00900000804000100798001e0090002a
:103f4c000003b000aaff07000080fa000000060082
:103f5c000400fa001007980000032000a4ff0700db
:103f6c0080072000a2ff07001e0090004400de0026
:103f7c00004f78001e4078000b0007000080fb000b
:103f8c009bff07001e009000004078006f4f600000
:103f9c001e407800040007000080fb0094ff07001f
:103fac000080fa00000006000200fa00004f7800c2
:103fbc001e407800e94f500003003e0001c3b300df
:103fcc001ec040001e0037001e80fb00ec0f50008e
:103fdc0012003200ec0f500005003c00ea0f5000bc
:103fec000a003200eb0f50000a00320013003700b9
:103ffc00ee0f50000d003200ee0f5000090035009e
:10400c00ef0f50000b0032000c00370010c4b3004f
:10401c000b00370020c4b3000900370030c4b300d4
:10402c000700370040c4b3000500370050c4b3008c
:10403c000300370060c4b3000100370020c5b30093
:10404c000080fa00000006000600fa001007980035
:10405c00414798000040eb00004f78000f003700fc
:10406c001e80fb009e0090000080400010407800f5
:10407c000004e000080032001e80fb009e0090004f
:10408c0000804000104078000080fb00b0ff07006b
:10409c00c03e29006aff07001e4fe8004e4090000a
:1040ac009e40780080cf5000edff39000080fa0070
:1040bc00000006000200fa00e0042000f016880060
:1040cc00e1e2a900e122a8008620a900e1e2a80013
:1040dc00d0168000000f7800290007000080fa003d
:1040ec00000006000000fa0000000000001780002d
:1040fc00610060000000e000fcff3a000017800047
:10410c00620060000000e000f8ff3a000017800039
:10411c00640060000000e000f4ff3a00001780002b
:10412c00680060000000e000f0ff3a00001780001b
:10413c00700060000000e000ecff3a0021178000e6
:10414c0000002400008060000000e000e7ff3a005f
:10415c000080fa00000006000000fa00e002a8004f
:10416c00e0ff07000080fa00000006000000fa00e3
:10417c00e022a800dbff07000080fa000000060028
:10418c000000fa00e042a800010037000000000027
:10419c0000178000640060000000e000fbff3a00a4
:1041ac00e062a9008620a900e4e2a900e542a9008a
:1041bc00ccff07000080fa00000006000200fa00a5
:1041cc00000f7800000000002017800061006000e4
:1041dc000000e000fcff3a008620a9001e007800d9
:1041ec00e016880021178000000820000080600085
:1041fc000000e000020032000080eb0005003700f8
:10420c00b8ff0700201780004f00de000040780048
:10421c000080fb000080fa00000006000400fa0099
:10422c00204798000040eb00004f7800e062a800a7
:10423c000000000000178000680060000000e00033
:10424c00fcff3a000100370000000000201780003e
:10425c00620060000000e000fbff3200d01680001e
:10426c00004f78002e409000614060000080fb0001
:10427c00610060004500dd0002178000f1fd2f0099
:10428c00810061000100700000178800e082a80026
:10429c000000000000178000700060000000e000cb
:1042ac00fcff3a001e4078000080fa000000060077
:1042bc000400fa00004f780011479800224798003c
:1042cc00a5ff07001e00fb00bcff07001e4090006e
:1042dc000000fb00b9ff07002e4090000000fb001f
:1042ec00b6ff0700a6ff07000080fa0000000600da
:1042fc000400fa00204798003147980096ff070009
:10430c002e4090000000fb00acff07003e409000e8
:10431c000000fb00a9ff070094ff07002e4090004f
:10432c000004a0000000fb00a4ff070010c0b300b5
:10433c00baff0700004f780091ff07001e4078007d
:10434c000080fa00000006000400fa001007980034
:10435c0081ff07001e00900098ff0700004f7800b7
:10436c0087ff07001e4078000080fa00000006005e
:10437c000600fa00004f7800110798004247980099
:10438c0075ff07001e80fb00000040008bff07003c
:10439c000000e00019003a001e0090004800de000a
:1043ac00004078000080fb0084ff07000000e00064
:1043bc000f003a001e009000004078000080fb00c7
:1043cc007eff07000000e00006003a004e4090001f
:1043dc000080fb0079ff070069ff07000040eb003d
:1043ec000800370066ff070000c0eb00050037002f
:1043fc0063ff070000c0eb000200370060ff0700fe
:10440c0000c0eb000080fa00000006000600fa0075
:10441c00004f780011079800220798004eff070004
:10442c001e80fb000000400064ff07000000e0005d
:10443c0024003a001e0090004800de000040780086
:10444c000080fb005dff07000000e0001a003a004e
:10445c001e009000004078000080fb0057ff070012
:10446c000000e00011003a003bff07001e80fb003b
:10447c004800dd000000a00050ff07000000e00035
:10448c0007003a000040eb0064ff0700ae0090000c
:10449c00804878003aff07000040eb000b00370023
:1044ac0037ff070000c0eb000800370034ff07009f
:1044bc0000c0eb000500370031ff070000c0eb0027
:1044cc00020037002eff070000c0eb000080fa004e
:1044dc00000006000000fa001600070005000700a7
:1044ec0023fe0700f3fe0700810007000080fa009e
:1044fc00000006000000fa000001eb006004200040
:10450c007105200003102000804978008149780053
:10451c008249780000002300100888000621ef0073
:10452c006821ef006a21ef006c21ef000080fa0097
:10453c00000006000000fa008421ef008e21ef003d
:10454c00f0002000000c8800f0fe2f00500c8800ba
:10455c008aa1a9005620ef005820ef005a20ef0046
:10456c006e20ef007020ef007220ef008621ef002c
:10457c009021ef00f0002000400c88009221ef0009
:10458c008b21a9008be1a9008bc1a9008b41a9004b
:10459c008ba1a9008b81a9008b61a800011f800051
:1045ac0000fc2f00008060000030a000001f88007d
:1045bc00111f8000f00f2c00808060000090200004
:1045cc0001007000101f8800a11d800000fc2f004e
:1045dc0000806000b000b300a01d8800111f800097
:1045ec0000fc2f00008060007000b300101f8800da
:0845fc000080fa000000060037
:020000040000fa
:104604000a0800000200000080000000000800000a
:104614000600000080000000640800002400000080
:104624008000000006080000040000008000000074
:10463400880800001a00000082000000686a6c000c
:10464400747a4c000000010000020000040008001d
:1046540000100000000020002b2d2300300000007b
:104664000c08000058000000820000006e616e001b
:10467400004e41004e0069006e660000494e46003f
:1046840000000000000000000024400000000000c2
:104694000000000059400000000000000088c30032
:1046a4004000000000008400d79741000080e00033
:1046b4003779c300414317006e05b500b5b89300c0
:1046c40046f5f9003fe903004f384d00321d300034
:1046d400f9487700825a3c00bf737f00dd4f150014
:1046e40075000000a2080000020000008200000023
:0846f40030000000000000008e
:020000040000fa
:1046fc000000fa000223ef000423ef000823ef0070
:10470c0030002000801888001423ef001623ef00df
:10471c001823ef001a23ef000103a80000c3a9001f
:10472c000123a90010022800001888000080fa005c
:10473c00000006000400fa00000f78001107980032
:10474c000000000040188000620060000000e000e3
:10475c00fcff3a001e007800104078000080fb003f
:10476c006018880000000000411880000002200042
:10477c00008060000000e000fbff3a006018800041
:10478c00804078001e009000014878000080fa00fc
:10479c00000006000400fa00204798000e80e80094
:1047ac008e007800e3ff07001e4078000080fa00be
:1047bc00000006000e00fa005007980061079800f0
:1047cc000e0178005e009000ee009000809fbe000d
:1047dc00603e2900801f780002007800a5f00700d9
:1047ec00e68757000e0078001dfd07000080fa00d8
:1047fc00000006000000fa0036ff07008061a900e7
:10480c0000402d00010320001d0007008461a8005a
:10481c0000402200410f2000190007008461a9000c
:10482c0000402200410f200015000700f4ff370064
:10483c000000fa00611c8000f00f2c0080806000ea
:10484c0000b0200001007000601c88008220a900cc
:10485c008680a9009680a8000080fa00000006005f
:10486c000000fa009680a8000080fa000000060004
:10487c000000fa009680a9000080fa0000000600f3
:020000040000fa
:10488c00f03fb1000180b10006003500ee030900d5
:10489c0000000000403fb1000180b100fbff3d0073
:1048ac001000b000203fb00002003500008009006d
:0848bc000000000000000600ee
:020000040000fa
:020000040002f8
:04aff000fff300006b
:020000040000fa
:020000040002f8
:04aff400fff6000064
:020000040000fa
:020000040002f8
:04aff8009fb1000005
:020000040000fa
:020000040002f8
:04affc003f3f0000d3
:00000001FF
