:020000040000fa
:080000000002040000000000f2
:020000040000fa
:0400080004030000ed
:020000040000fa
:04000c0004030000e9
:020000040000fa
:0400100004030000e5
:020000040000fa
:0400140004030000e1
:020000040000fa
:0400180004030000dd
:020000040000fa
:04001c0004030000d9
:020000040000fa
:0400200004030000d5
:020000040000fa
:0400240004030000d1
:020000040000fa
:0400280004030000cd
:020000040000fa
:04002c0004030000c9
:020000040000fa
:0400300004030000c5
:020000040000fa
:0400340004030000c1
:020000040000fa
:0400380004030000bd
:020000040000fa
:04003c0004030000b9
:020000040000fa
:0400400004030000b5
:020000040000fa
:0400440004030000b1
:020000040000fa
:0400480004030000ad
:020000040000fa
:04004c0004030000a9
:020000040000fa
:0400500004030000a5
:020000040000fa
:0400540004030000a1
:020000040000fa
:04005800040300009d
:020000040000fa
:04005c000403000099
:020000040000fa
:040060000403000095
:020000040000fa
:040064000403000091
:020000040000fa
:04006800040300008d
:020000040000fa
:04006c000403000089
:020000040000fa
:040070000403000085
:020000040000fa
:040074000403000081
:020000040000fa
:04007800040300007d
:020000040000fa
:04007c000403000079
:020000040000fa
:040080000403000075
:020000040000fa
:040084000403000071
:020000040000fa
:04008800040300006d
:020000040000fa
:04008c000403000069
:020000040000fa
:040090000403000065
:020000040000fa
:040094000403000061
:020000040000fa
:04009800040300005d
:020000040000fa
:04009c000403000059
:020000040000fa
:0400a0000403000055
:020000040000fa
:0400a4000403000051
:020000040000fa
:0400a800040300004d
:020000040000fa
:0400ac000403000049
:020000040000fa
:0400b0000403000045
:020000040000fa
:0400b4000403000041
:020000040000fa
:0400b800040300003d
:020000040000fa
:0400bc000403000039
:020000040000fa
:0400c0000403000035
:020000040000fa
:0400c4000403000031
:020000040000fa
:0400c800040300002d
:020000040000fa
:0400cc000403000029
:020000040000fa
:0400d0000403000025
:020000040000fa
:0400d4000403000021
:020000040000fa
:0400d800040300001d
:020000040000fa
:0400dc000403000019
:020000040000fa
:0400e0000403000015
:020000040000fa
:0400e4000403000011
:020000040000fa
:0400e800040300000d
:020000040000fa
:0400ec000403000009
:020000040000fa
:0400f0000403000005
:020000040000fa
:0400f4000403000001
:020000040000fa
:0400f80004030000fd
:020000040000fa
:0400fc0004030000f9
:020000040000fa
:0401000004030000f4
:020000040000fa
:0401040004030000f0
:020000040000fa
:0401080004030000ec
:020000040000fa
:04010c0004030000e8
:020000040000fa
:0401100004030000e4
:020000040000fa
:0401140004030000e0
:020000040000fa
:0401180004030000dc
:020000040000fa
:04011c0004030000d8
:020000040000fa
:0401200004030000d4
:020000040000fa
:0401240004030000d0
:020000040000fa
:0401280004030000cc
:020000040000fa
:04012c0004030000c8
:020000040000fa
:0401300004030000c4
:020000040000fa
:0401340004030000c0
:020000040000fa
:0401380004030000bc
:020000040000fa
:04013c0004030000b8
:020000040000fa
:0401400004030000b4
:020000040000fa
:0401440004030000b0
:020000040000fa
:0401480004030000ac
:020000040000fa
:04014c0004030000a8
:020000040000fa
:0401500004030000a4
:020000040000fa
:0401540004030000a0
:020000040000fa
:04015800040300009c
:020000040000fa
:04015c000403000098
:020000040000fa
:040160000403000094
:020000040000fa
:040164000403000090
:020000040000fa
:04016800040300008c
:020000040000fa
:04016c000403000088
:020000040000fa
:040170000403000084
:020000040000fa
:040174000403000080
:020000040000fa
:04017800040300007c
:020000040000fa
:04017c000403000078
:020000040000fa
:040180000403000074
:020000040000fa
:040184000403000070
:020000040000fa
:04018800040300006c
:020000040000fa
:04018c000403000068
:020000040000fa
:040190000403000064
:020000040000fa
:040194000403000060
:020000040000fa
:04019800040300005c
:020000040000fa
:04019c000403000058
:020000040000fa
:0401a0000403000054
:020000040000fa
:0401a4000403000050
:020000040000fa
:0401a800040300004c
:020000040000fa
:0401ac000403000048
:020000040000fa
:0401b0000403000044
:020000040000fa
:0401b4000403000040
:020000040000fa
:0401b800040300003c
:020000040000fa
:0401bc000403000038
:020000040000fa
:0401c0000403000034
:020000040000fa
:0401c4000403000030
:020000040000fa
:0401c800040300002c
:020000040000fa
:0401cc000403000028
:020000040000fa
:0401d0000403000024
:020000040000fa
:0401d4000403000020
:020000040000fa
:0401d800040300001c
:020000040000fa
:0401dc000403000018
:020000040000fa
:0401e0000403000014
:020000040000fa
:0401e4000403000010
:020000040000fa
:0401e800040300000c
:020000040000fa
:0401ec000403000008
:020000040000fa
:0401f0000403000004
:020000040000fa
:0401f4000403000000
:020000040000fa
:0401f80004030000fc
:020000040000fa
:0401fc0004030000f8
:020000040000fa
:0402080004030000eb
:020000040000fa
:04020c0004030000e7
:020000040000fa
:0402100004030000e3
:020000040000fa
:0402140004030000df
:020000040000fa
:0402180004030000db
:020000040000fa
:04021c0004030000d7
:020000040000fa
:0402200004030000d3
:020000040000fa
:0402240004030000cf
:020000040000fa
:0402280004030000cb
:020000040000fa
:04022c0004030000c7
:020000040000fa
:0402300004030000c3
:020000040000fa
:0402340004030000bf
:020000040000fa
:0402380004030000bb
:020000040000fa
:04023c0004030000b7
:020000040000fa
:0402400004030000b3
:020000040000fa
:0402440004030000af
:020000040000fa
:0402480004030000ab
:020000040000fa
:04024c0004030000a7
:020000040000fa
:0402500004030000a3
:020000040000fa
:04025400040300009f
:020000040000fa
:04025800040300009b
:020000040000fa
:04025c000403000097
:020000040000fa
:040260000403000093
:020000040000fa
:04026400040300008f
:020000040000fa
:04026800040300008b
:020000040000fa
:04026c000403000087
:020000040000fa
:040270000403000083
:020000040000fa
:04027400040300007f
:020000040000fa
:04027800040300007b
:020000040000fa
:04027c000403000077
:020000040000fa
:040280000403000073
:020000040000fa
:04028400040300006f
:020000040000fa
:04028800040300006b
:020000040000fa
:04028c000403000067
:020000040000fa
:040290000403000063
:020000040000fa
:04029400040300005f
:020000040000fa
:04029800040300005b
:020000040000fa
:04029c000403000057
:020000040000fa
:0402a0000403000053
:020000040000fa
:0402a400040300004f
:020000040000fa
:0402a800040300004b
:020000040000fa
:0402ac000403000047
:020000040000fa
:0402b0000403000043
:020000040000fa
:0402b400040300003f
:020000040000fa
:0402b800040300003b
:020000040000fa
:0402bc000403000037
:020000040000fa
:0402c0000403000033
:020000040000fa
:0402c400040300002f
:020000040000fa
:0402c800040300002b
:020000040000fa
:0402cc000403000027
:020000040000fa
:0402d0000403000023
:020000040000fa
:0402d400040300001f
:020000040000fa
:0402d800040300001b
:020000040000fa
:0402dc000403000017
:020000040000fa
:0402e0000403000013
:020000040000fa
:0402e400040300000f
:020000040000fa
:0402e800040300000b
:020000040000fa
:0402ec000403000007
:020000040000fa
:0402f0000403000003
:020000040000fa
:0402f40004030000ff
:020000040000fa
:0402f80004030000fb
:020000040000fa
:0402fc0004030000f7
:020000040000fa
:0403000004030000f2
:020000040000fa
:0403040004030000ee
:020000040000fa
:0403080004030000ea
:020000040000fa
:04030c0004030000e6
:020000040000fa
:0403100004030000e2
:020000040000fa
:0403140004030000de
:020000040000fa
:0403180004030000da
:020000040000fa
:04031c0004030000d6
:020000040000fa
:0403200004030000d2
:020000040000fa
:0403240004030000ce
:020000040000fa
:0403280004030000ca
:020000040000fa
:04032c0004030000c6
:020000040000fa
:0403300004030000c2
:020000040000fa
:0403340004030000be
:020000040000fa
:0403380004030000ba
:020000040000fa
:04033c0004030000b6
:020000040000fa
:0403400004030000b2
:020000040000fa
:0403440004030000ae
:020000040000fa
:0403480004030000aa
:020000040000fa
:04034c0004030000a6
:020000040000fa
:0403500004030000a2
:020000040000fa
:04035400040300009e
:020000040000fa
:04035800040300009a
:020000040000fa
:04035c000403000096
:020000040000fa
:040360000403000092
:020000040000fa
:04036400040300008e
:020000040000fa
:04036800040300008a
:020000040000fa
:04036c000403000086
:020000040000fa
:040370000403000082
:020000040000fa
:04037400040300007e
:020000040000fa
:04037800040300007a
:020000040000fa
:04037c000403000076
:020000040000fa
:040380000403000072
:020000040000fa
:04038400040300006e
:020000040000fa
:04038800040300006a
:020000040000fa
:04038c000403000066
:020000040000fa
:040390000403000062
:020000040000fa
:04039400040300005e
:020000040000fa
:04039800040300005a
:020000040000fa
:04039c000403000056
:020000040000fa
:0403a0000403000052
:020000040000fa
:0403a400040300004e
:020000040000fa
:0403a800040300004a
:020000040000fa
:0403ac000403000046
:020000040000fa
:0403b0000403000042
:020000040000fa
:0403b400040300003e
:020000040000fa
:0403b800040300003a
:020000040000fa
:0403bc000403000036
:020000040000fa
:0403c0000403000032
:020000040000fa
:0403c400040300002e
:020000040000fa
:0403c800040300002a
:020000040000fa
:0403cc000403000026
:020000040000fa
:0403d0000403000022
:020000040000fa
:0403d400040300001e
:020000040000fa
:0403d800040300001a
:020000040000fa
:0403dc000403000016
:020000040000fa
:0403e0000403000012
:020000040000fa
:0403e400040300000e
:020000040000fa
:0403e800040300000a
:020000040000fa
:0403ec000403000006
:020000040000fa
:0403f0000403000002
:020000040000fa
:0403f40004030000fe
:020000040000fa
:0403f80004030000fa
:020000040000fa
:0403fc0004030000f6
:020000040000fa
:100400008f8020000e7f22000e0188000000000077
:10041000000020000000e000020032000001200087
:100420002002880014000700790007000000e000a7
:1004300003003a00e07221000100200002003700b2
:100440000000200001002000810f70000100320038
:1004500014000700000020000000e000020032004d
:100460000000020000000000b215020000000000c1
:100470000040da000000fe004440a9006043200074
:100480000000e000030032000020200090018800fe
:100490004440a800000006008a1f78008b1f7800e7
:1004a00000000600a1028800800478000000eb0034
:1004b0001f003700e284440054a0b4009905ba003c
:1004c000e284440054a0b4009906ba00e2844400d7
:1004d00054a0b4000006eb00476fde00fd07b20039
:1004e000ae018800636ce10003003a00eaff0700f8
:1004f0000000eb000e003700606ce10008003a00dd
:10050000004deb000a05e800020039003420ec0041
:100510000af0a0008b05e900f9ff3e000400370057
:100520006168e100010032000086eb000b0007006b
:1005300019c7ba001905ba000e04e00003003a001a
:100540000a00e000dbff3a0000000600fe07b200f0
:10055000ae0288008a047800f5ff37000cd0a300b3
:10056000e20f4d001c00390089027800354dba00b9
:100570000a05e800020039003420ec000af0a0006f
:100580008b05e9000f003200254dba000a05e8008e
:10059000020039003420ec000af0a0008b05e900cd
:1005a000080032000c00e0000600320015cdba0051
:1005b0000a05e800020039003420ec000af0a0002f
:1005c0008b05e9008984e80054a0b4000b00e0002a
:1005d000e2ff3a00000006009902ba00055d7800cb
:1005e0008b05e900f7ff3200c82ade00055d7800c0
:1005f0008b05e900f3ff32000c00e000f1ff320050
:1006000019ddba00eeff37000040da000000fe00fe
:0406100000000500e1
:020000040000fa
:10061400434f00004e4600004947000020520000ae
:10062400454700004953000054450000522800008b
:10063400436f00006e660000696700007572000079
:1006440061740000696f00006e20000052650000b4
:1006540067690000737400006572000029200000bf
:100664003a200000200000000d0a000000450000b0
:100674004e5f000041410000205200004547000049
:100684004953000054450000522000002845000052
:100694006e610000626c000065200000417500007e
:1006a400746f000020410000636b00006e6f000057
:1006b400776c000065640000676d0000656e0000e3
:1006c400742900003a20000020000000454e00007c
:1006d4005f520000584100004444000052200000d2
:1006e400284500006e610000626c00006564000033
:1006f400205200005820000070690000706500005e
:10070400732900003a200000200000005345000037
:1007140054550000505f000041570000202800009d
:100724005365000074750000702000006f660000bf
:1007340020410000646400007265000073730000cf
:10074400205700006964000074680000292000003c
:100754000d0a000000200000286300006f6d0000f7
:100764006d6f00006e200000666f000072200000b4
:10077400616c00006c200000646100007461000082
:1007840020700000697000006573000029200000db
:100794003a2000000053000045540000555000006a
:1007a4005f5200004554000052200000285300000e
:1007b4006574000075700000206f00006620000062
:1007c40041750000746f00006d61000074690000e1
:1007d400632000005265000074720000616e000026
:1007e400736d000069730000736900006f6e000090
:1007f400293a00002020000000520000465f00005b
:100804004348000020280000524600002043000016
:10081400686100006e6e0000656c0000293a0000fb
:100824002020000000520000465f000053450000f5
:1008340054550000502000002852000046200000bb
:1008440053650000747500007020000052650000bc
:10085400676900007374000065720000293a0000a3
:1008640020200000005300005441000054550000b3
:1008740053200000285300007461000074750000c8
:100884007320000052650000676900007374000063
:1008940065720000293a0000202000000052000088
:1008a400585f000041440000445200005f500000c3
:1008b40030200000285200006563000065690000d4
:1008c4007665000020610000646400007265000029
:1008d4007373000020640000617400006120000054
:1008e400706900007065000020300000293a0000a3
:1008f40000520000585f00004144000044520000d0
:100904005f500000312000002852000065630000a1
:1009140065690000766500002061000064640000e1
:1009240072650000737300002064000061740000ad
:100934006120000070690000706500002031000033
:10094400293a000000520000585f000041440000b2
:10095400445200005f500000322000002852000082
:100964006563000065690000766500002061000091
:10097400646400007265000073730000206400006a
:10098400617400006120000070690000706500005f
:1009940020320000293a000000520000585f000095
:1009a40041440000445200005f5000003320000026
:1009b4002852000065630000656900007665000048
:1009c400206100006464000072650000737300001d
:1009d4002064000061740000612000007069000060
:1009e4007065000020330000293a00000052000026
:1009f400585f000041440000445200005f50000072
:100a0400342000002852000065630000656900007e
:100a140076650000206100006464000072650000d7
:100a24007373000020640000617400006120000002
:100a3400706900007065000020340000293a00004d
:100a440000520000585f000041440000445200007e
:100a54005f5000003520000028520000656300004c
:100a64006569000076650000206100006464000090
:100a7400726500007373000020640000617400005c
:100a840061200000706900007065000020350000de
:100a9400293a000000540000585f0000414400005f
:100aa400445200002028000054720000616e0000cf
:100ab400736d00006974000020610000646400002c
:100ac4007265000073730000293a000000520000b0
:100ad400585f0000505700005f50000030200000b5
:100ae400284e0000756d0000626500007220000051
:100af4006f660000206200007974000065730000d6
:100b0400206900006e200000525800002070000090
:100b1400617900006c6f00006164000020690000ce
:100b24006e20000064610000746100002070000009
:100b34006970000065200000302900003a000000c0
:100b4400525800005f500000575f00005031000011
:100b5400202800004e7500006d62000065720000e0
:100b6400206f0000662000006279000074650000b8
:100b740073200000696e000020520000582000001d
:100b840070610000796c00006f6100006420000057
:100b9400696e0000206400006174000061200000a0
:100ba400706900007065000020310000293a0000df
:100bb40000520000585f0000505700005f500000d2
:100bc40032200000284e0000756d000062650000b0
:100bd400722000006f66000020620000797400003b
:100be40065730000206900006e2000005258000068
:100bf40020700000617900006c6f000061640000e7
:100c0400206900006e20000064610000746100002f
:100c14002070000069700000652000003229000087
:100c24003a000000525800005f500000575f000077
:100c340050330000202800004e7500006d62000053
:100c440065720000206f00006620000062790000d9
:100c54007465000073200000696e000020520000db
:100c64005820000070610000796c00006f61000082
:100c740064200000696e00002064000061740000bc
:100c840061200000706900007065000020330000de
:100c9400293a000000520000585f0000505700003d
:100ca4005f50000034200000284e0000756d0000e5
:100cb40062650000722000006f6600002062000080
:100cc4007974000065730000206900006e20000044
:100cd4005258000020700000617900006c6f000021
:100ce40061640000206900006e200000646100005f
:100cf400746100002070000069700000652000002d
:100d0400342900003a000000525800005f500000ef
:100d1400575f000050350000202800004e75000089
:100d24006d62000065720000206f00006620000004
:100d3400627900007465000073200000696e000091
:100d4400205200005820000070610000796c0000ff
:100d54006f61000064200000696e000020640000e0
:100d6400617400006120000070690000706500007b
:100d740020350000293a000000440000594e0000cc
:100d84005044000020280000456e0000616200000d
:100d94006c65000020640000796e0000616d000045
:100da4006963000020700000617900006c6f00002e
:100db40061640000206c0000656e00006774000030
:100dc400682900003a00000052650000676c0000ca
:100dd4006167000065200000656d00006d6500001e
:100de4007465000075720000202000002852000085
:100df400582900003a2000000d0a0000006300009a
:100e04006f6e000066690000677500007261000083
:100e1400746900006f6e0000206500006d6d0000b5
:100e24006574000065750000722000003120000028
:100e34002852000058290000200d00000a0000007c
:100e44000d0a00000d0a00000d0a00000d0a000042
:100e54000d0a00000d0a0000000d0000200a000029
:100e640000d70000d5d70000d7d70000e7e700007f
:0c0e7400e7e70000e7000000200000009d
:020000040000fa
:100e80000400fa00204798000040eb00004f780073
:100e90000040eb00104798000040eb0059000700ad
:100ea0000040eb00004f78001c0037002e409000ff
:100eb0008080fb001e80fb00670010000088de00c1
:100ec00061006000004078000004e0000300320090
:100ed00010c0b30055000700020037000040eb00cf
:100ee0005200070010c0b300460007001e409000eb
:100ef0000040400010479800560007000004e00042
:100f0000030032001e4090000004a000104798002b
:100f10000040eb003b0007001e4fe8001e40780039
:100f2000e74f5000e1ff36001e4090000080fa00bd
:100f3000000006000200fa00004f780011479800f8
:100f40001e4090000080fb00e10f500003003200c3
:100f5000e20f5000080032000e0037001e407800fb
:100f60000004e000020032008fc1a8000900370031
:100f70008fc1a900070037001e4078000004e00080
:100f8000020032008f21a800020037008f21a90043
:100f9000000000000080fa00000006000200fa00d5
:100fa000004f7800114798001e4090000080fb0021
:100fb000e10f500003003200e20f50000800320041
:100fc0000e0037001e4078000004e00002003200ee
:100fd0008fe1a800090037008fe1a9000700370062
:100fe0001e4078000004e000020032008fa1a8003b
:100ff000020037008fa1a900000000000080fa0065
:10100000000006000200fa00004f78001e40780041
:101010000004e000020032008f41a8000100370008
:101020008f41a9000080fa00000006000200fa00cb
:10103000004f78001e4078000004e00002003200fb
:101040008f81a800010037008f81a9000080fa007d
:10105000000006000000fa00600c80004b00de007b
:10106000614060000080fa00000006000800fa00fd
:10107000881f7800100798002107980062479800a1
:101080000040eb00004f78000a0037001e80fb0094
:10109000ae009000008440001e80fb009e00900087
:1010a000008040001040780075ff0700004c780079
:1010b0001e4fe8006e4090009e40780080cf5000a8
:1010c000f2ff39004f0478000080fa0000000600ab
:1010d0000600fa0010079800414798000040eb0016
:1010e000004f7800060037001e80fb009e00900035
:1010f000008040001040780061ff07001e4fe800ac
:101100004e4090009e40780080cf5000f6ff39009e
:101110000080fa00000006000400fa00004f78008a
:101120001147980022479800ae4090000040eb0025
:101130009aff07009e4078007fc060000054a00026
:101140004fff07001e4090004dff0700ae4090008b
:1011500010c0b30091ff07000080fa0000000600f5
:101160000600fa00004f78001107980042479800e7
:1011700053479800de4090000040eb0087ff0700d7
:101180009e4078007fc060003dff07004e41900008
:101190009e0090001e009000b4ff0700de4090000b
:1011a00010c0b3007dff07000080fa0000000600b9
:1011b0000600fa00004f7800110798004247980097
:1011c00053479800de4090000040eb0073ff07009b
:1011d0009e4078007fc060000054a00028ff0700f8
:1011e000ce4090001e009000b9ff0700de40900046
:1011f00010c0b30069ff07000080fa00000006007d
:101200000400fa00004f7800114798002247980028
:101210002e4190009e40780050c0b300beff0700f2
:101220002e4190008040eb0010c1b300baff0700d0
:101230002e4190009e40900020c1b300b6ff0700f1
:101240002e4190008040eb0030c1b300b2ff070098
:101250002e4190008040eb0040c1b300aeff07007c
:101260002e4190008040eb0050c1b300aaff070060
:101270002e4190008040eb0060c1b300a6ff070044
:101280002e41900061c2b30060c0b300a2ff07000e
:101290002e41900081c0b3000040eb009eff07008c
:1012a0002e41900031c0b30010c0b3009aff070078
:1012b0002e41900031c0b30020c0b30096ff07005c
:1012c0002e41900080c0eb0040c0b30092ff0700a9
:1012d0002e4190008040eb00c0c1b3008eff07009c
:1012e0002e409000020007000080fa000000060077
:1012f0000200fa00004f78009e4078000040eb00aa
:1013000026ff070020ceb300ddfe07009e407800d8
:1013100010c0b30021ff07001e41780001c7b300d1
:1013200070c0b3007cff07009e4078000040eb00d7
:1013300000ff07001e417800b1c0b3000040eb0081
:1013400075ff07009e40780010c0b300f9fe07004b
:101350000080fa00000006000400fa00000f780088
:1013600021479800ae4090000040eb00f1fe0700de
:10137000ae41900052c0b3009e007800b0c0b300f0
:101380008bff0700ae40900010c0b300e9fe0700dd
:101390000080fa00000006000400fa00000f780048
:1013a00021479800ae41900052c0b3009e007800e3
:1013b00000c1b3007eff07000080fa0000000600b5
:1013c0000400fa00204798002e4090007c0007009f
:1013d000004f78009e80fb00000420000080600029
:1013e0000000e0000200320010c0b3000600370029
:1013f0002e409000060007000080fb000000e9007e
:101400004f00de00004078000080fa000000060077
:101410000400fa0020479800ae41900012c0b300cb
:101420008e00780070c1b3004dff07001e407800a9
:10143000614060000080fa00000006000400fa002d
:1014400020479800ae4090000040eb00d3fe07001c
:1014500000c6b3008afe07000040eb0088fe0700cc
:10146000004f7800ae40900010c0b300cbfe0700e4
:101470001e4078000080fa00000006000400fa0018
:10148000000f780021479800ae4090000040eb002c
:10149000c2fe070010c6b30079fe070042c0b300c9
:1014a0009e0078001e007800f0fe0700ae4090001d
:1014b00010c0b300b9fe07002e41900001c4b30074
:1014c00070c0b30014ff07000080fa00000006009f
:1014d0000400fa0020479800ae41900012c0b3000b
:1014e0008e00780080c0b3001dff07001e4078000a
:1014f0006f406000004f78001e4078000080fa00c6
:10150000000006000400fa00000f78002147980050
:10151000ae4090000040eb0086fe07002e40900099
:101520004a000700ae4090000040eb009bfe070021
:1015300010ceb30052fe0700ae40900010c0b300c2
:1015400096fe0700ae4090000040eb0093fe0700bf
:1015500000cab3004afe070041c0b3001e00780075
:10156000dbfe0700ae40900010c0b3008bfe07000a
:10157000ae40900010c0b3006efe07000080fa007d
:10158000000006000400fa00204798002e4090005a
:101590000b000700004f78009e80fb000003200036
:1015a000008060000000e000020032000040eb001c
:1015b0000100370010c0b3000080fa0000000600f0
:1015c0000400fa0020479800ae4090000040eb0075
:1015d00072fe070000c0eb0029fe0700004f7800f4
:1015e000ae40900010c0b3006cfe07001e407800b3
:1015f0000080fa00000006000400fa00204798006e
:101600002e409000eeff0700004f78009e80fb0008
:1016100000022000008060000000e00002003200b4
:101620000040eb00070037001e80fb0070006000e8
:101630000000e0000200320010c0b30001003700db
:1016400000c0eb000080fa00000006000200fa0073
:10165000004f78001e41780001c7b30070c0b3008e
:10166000adfe07001e417800a1c0b3000040eb00b2
:10167000a9fe07000080fa00000006000200fa0040
:10168000004f78009e4078000040eb0029fe0700e4
:101690001e41780081c0b3000040eb009efe0700b1
:1016a0000080fa00000006000800fa006047980079
:1016b00001000900001feb00005feb005e00b100bd
:1016c000ee41900012c0b3008e0078000040eb00a5
:1016d000a3fe0700a03028002003070051002000cf
:1016e0000e0078009f030700603328001b030700eb
:1016f00051c0b3000e0078003f010700ee4190009a
:1017000012c0b3008e00780010c0b30094fe070032
:101710009033280011030700510020000e007800cc
:1017200090030700603328000c03070051c0b3008a
:101730000e00780030010700ee41900012c0b300a7
:101740008e00780020c0b30085fe07008036280098
:1017500002030700510020000e00780081030700fb
:1017600060332800fd02070051c0b3000e0078006e
:1017700021010700ee41900012c0b3008e007800f6
:1017800030c0b30076fe070080382800f30207005f
:10179000d03a2800f1020700510020000e00780026
:1017a0007003070060332800ec02070051c0b3004b
:1017b0000e00780010010700ee41900012c0b30047
:1017c0008e00780040c0b30065fe0700d03c2800c2
:1017d000e2020700510020000e00780061030700bc
:1017e00060332800dd02070051c0b3000e0078000e
:1017f00001010700ee41900012c0b3008e00780096
:1018000050c0b30056fe0700f03f2800d302070087
:10181000510020000e0078005203070060332800ba
:10182000ce02070051c0b3000e007800f20007009e
:10183000ee41900012c0b3008e00780060c0b3008b
:1018400047fe070050412800c40207005100200055
:101850000e0078004303070060332800bf02070032
:1018600051c0b3000e007800e3000700ee41900085
:1018700012c0b3008e00780070c0b30038fe0700bd
:1018800050432800b5020700510020000e007800e8
:101890003403070060332800b002070051c0b300d2
:1018a0000e007800d4000700ee41900052c0b30053
:1018b0008e007800a0c0b30029fe07001045280064
:1018c000a6020700510020000e0078002503070043
:1018d00060332800a102070051c0b3000e00780059
:1018e000c5000700ee41900052c0b3008e007800a2
:1018f000b0c0b3001afe0700b047280097020700e7
:10190000510020000e007800160307006033280005
:101910009202070051c0b3000e007800b600070025
:10192000ee41900052c0b3008e007800c0c0b300fa
:101930000bfe0700504a28008802070051002000d3
:101940000e007800070307006033280083020700b9
:1019500051c0b3000e007800a7000700ee419000d0
:1019600052c0b3008e007800d0c0b300fcfd070069
:10197000f04c280079020700510020000e0078008a
:10198000f8020700603328007402070051c0b3005a
:101990000e00780098000700ee41900052c0b3009e
:1019a0008e007800e0c0b300edfd0700904f2800e6
:1019b0006a020700510020000e007800e9020700cb
:1019c000603328006502070051c0b3000e007800a4
:1019d00089000700ee41900052c0b3008e007800ed
:1019e000f0c0b300defd0700305228005b020700a4
:1019f000510020000e007800da0207006033280052
:101a00005602070051c0b3000e0078007a000700ac
:101a1000ee41900052c0b3008e00780000c1b300c8
:101a2000cffd0700d05428004c02070051002000d1
:101a30000e007800cb020700603328004702070041
:101a400051c0b3000e0078006b000700ee4190001b
:101a500012c0b3008e00780010c1b300c0fd0700b3
:101a6000905628003d020700510020000e0078002b
:101a7000bc020700603328003802070051c0b300e1
:101a80000e0078005c000700ee41900012c0b30029
:101a90008e00780020c1b300b1fd0700205a280055
:101aa0002e020700510020000e007800ad02070052
:101ab000603328002902070051c0b3000e007800ef
:101ac0004d000700ee41900012c0b3008e00780078
:101ad00030c1b300a2fd0700b05d28001f0207005f
:101ae000510020000e0078009e020700603328009d
:101af0001a02070051c0b3000e0078003e00070034
:101b0000ee41900012c0b3008e00780040c1b300d7
:101b100093fd0700406128001002070051002000db
:101b20000e0078008f020700603328000b020700c8
:101b300051c0b3000e0078002f000700ee41900066
:101b400012c0b3008e00780050c1b30084fd0700be
:101b5000d064280001020700510020000e00780028
:101b60008002070060332800fc01070051c0b30069
:101b70000e00780020000700ee41900012c0b30074
:101b80008e00780060c1b30075fd07006068280012
:101b9000f2010700510020000e00780071020700da
:101ba00060332800ed01070051c0b3000e0078003b
:101bb00011000700ee41900012c0b3008e007800c3
:101bc000c0c1b30066fd0700f06b2800e301070009
:101bd000510020000e0078006202070060332800e8
:101be000de01070051c0b3000e00780002000700bc
:101bf0000080fa00000006000600fa0010079800b6
:101c0000414798000040eb00004f78000600370085
:101c10001e80fb009e009000008040008040eb0092
:101c2000014878001e4fe8004e4090009e4078002a
:101c300080cf5000f6ff39000080fa000000060057
:101c40000400fa00004f78001147980022479800de
:101c50001e41900011802000824878000068ef004b
:101c60001e409000e14f50000300360000c8bf0046
:101c70000034a00000e8b7002e4090000004e0000f
:101c8000060032001e409000e14f500003003a0071
:101c900000c8bf000024a00000e8b7000041eb002e
:101ca0008040eb000040eb001801070000502300cb
:101cb000c10020005b0407008040eb0030c0b3008f
:101cc000ff000700009421001100200055040700c8
:101cd0008040eb0030c0b300f90007000094210001
:101ce000110020004f0407008040eb0030c0b3001b
:101cf000f3000700009620000100200049040700bf
:101d00008040eb0020c0b300ed00070000c8bf001a
:101d10000054a000d200070070c0b30004e8b70070
:101d2000400007000700070020c0b30003e8b70029
:101d300003c8bf000024a000c90007000080fa000b
:101d4000000006000000fa0010c0b300c400070045
:101d500000d0270001002000320407000080fa00b4
:101d6000000006000000fa0020c0b300bc0007001d
:101d700000d02700010020002a0407000080fa009c
:101d8000000006000a00fa00004f9800114f98006a
:101d90000000eb00000f78000004200010079800fe
:101da00040012000200798004005200030079800df
:101db00001c8bf009e48900080cf5000030039004a
:101dc00001c8bf000040e900104f98001e48900075
:101dd0000080fb00000040006e007800804078002a
:101de0000e48900000c040000074a0009c00070056
:101df0000080fa00000006000000fa004180200088
:101e000091407800b0cfb30000c0600004e8b70094
:101e100004c8bf000034a000910007000080fa0051
:101e2000000006000000fa0004c8bf000024a00063
:101e300004e8b70004c8bf000034a0008800070011
:101e40000080fa00000006000000fa004180200037
:101e500091407800d0cfb30000c0600004e8b70024
:101e600004c8bf000034a0007d0007000080fa0015
:101e7000000006000000fa0004c8bf000014a00023
:101e800004e8b70004c8bf000034a00074000700d5
:101e90000080fa00000006000000fa0041802000e7
:101ea00091407800e0cfb30000c0600004e8b700c4
:101eb00004c8bf000034a000690007000080fa00d9
:101ec000000006000000fa0004c8bf000004a000e3
:101ed00004e8b70004c8bf000034a0006000070099
:101ee0000080fa00000006000000fa0080c1b30084
:101ef0005b0007000080fa00000006000000fa0006
:101f0000c0c1b300560007000080fa0000000600c0
:101f10000000fa0003c8bf000014a00003e8b700e7
:101f200003c8bf000024a0004d0007000080fa0095
:101f3000000006000000fa00318020009140780087
:101f4000d0cfb30000c0600003e8b70003c8bf00f3
:101f50000024a000420007000080fa0000000600f4
:101f60000000fa0003c8bf000004a00003e8b700a7
:101f700003c8bf000024a000390007000080fa0059
:101f8000000006000000fa00318020009140780037
:101f9000e0cfb30000c0600003e8b70003c8bf0093
:101fa0000024a0002e0007000080fa0000000600b8
:101fb0000200fa00004f78001e41780021802000c6
:101fc000824878000041eb0011c0b3000040eb00f4
:101fd0004e0007000080fa00000006000600fa002c
:101fe00020479800210798002e409000674060002d
:101ff000204798002e4090000080fb004300dd0049
:10200000004078000064a000150007000040eb00cd
:10201000004f7800060037001e80fb00ae009000e5
:102020000080400010407800060007001e4fe800c6
:102030001e407800e74f5000f7ff36000080fa009e
:10204000000006000200fa00004f780011c0b30043
:102050001e407800090007000080fa00000006001a
:102060000200fa00004f78008040eb001e4078002c
:10207000020007000080fa00000006000400fa00d9
:1020800020479800314798002e4090006f4f600025
:102090002e4090000080fb004400de0010479800b6
:1020a000be4090001e40900005000700be4090001a
:1020b0001e407800020007000080fa0000000600c1
:1020c0000200fa00004f78001147980012c0b300d8
:1020d0009e4090001e4078000c0007000001200088
:1020e000010020004f0307000041eb009e409000dc
:1020f0001e40780005000700002820000100200095
:10210000480307000080fa00000006000600fa00fd
:10211000204798003147980042479800ae40900011
:10212000400020000008dd00004f78003e40900095
:102130000004e000010032001e04a0004e409000a8
:102140000004e000010032001e24a00002c8bf000d
:102150000004e000010032001e34a000fb01070073
:10216000e0072000120207001e80fb00100207009b
:10217000000207000080fa00000006000200fa00da
:10218000000f7800040037001e007800104078002f
:102190001e0fe800abff07001e007800104078001b
:1021a0000004e000f8ff3a000080fa00000006009a
:1021b0000400fa00100798001e009000c300de0023
:1021c000500c22000008b8004408de00004f7800e0
:1021d00001c3b3001ec040009aff07009e80fb00b1
:1021e00080c12f000088b900000078009e00900098
:1021f00000804000100798001e009000c200de0022
:10220000b04721000008b8000100d100004f78005d
:1022100001c3b3001ec040008aff07009e80fb0080
:10222000c0f92f000088b900000078009e009000df
:1022300000804000100798009e009000d0cc2c0039
:102240000008b8004308de00004f780001c3b30067
:102250001ec040007bff07009e80fb0060ff2f0038
:102260000088b900000078009e00900000804000c7
:10227000100798001e009000004078000043b00056
:1022800070ff07000080fa00000006000000fa005e
:102290008ae1a8008ac1a900811d800000fc2f00ee
:1022a000008060007000b300801d8800e11e800087
:1022b00000fc2f00008060003000b300e01e8800aa
:1022c00000812a0000288800004023001028880090
:1022d00070062000402888000080fa0000000600f8
:1022e0000200fa00004f7800112880000010200042
:1022f000008060000000e000020032001e00fb00d1
:10230000202888000080fa00000006000200fa0081
:10231000000f78000000000011288000001020004d
:10232000008060000000e000fbff32000028800019
:1023300066006000e60f500003003a009e0078003f
:102340002128880003003700f00f20001e006000e5
:10235000202888000080fa00000006000200fa0031
:10236000000f7800050037001e007800104078004c
:102370000000fb001e0fe800e4ff07001e007800cd
:10238000104078000004e000f7ff3a000080fa00f7
:10239000000006000400fa00100798001e009000dc
:1023a000c300de00500c22000008b8004408de0024
:1023b000004f78001e80fb000003b000d3ff070031
:1023c0009e80fb0080c12f000088b90000007800cb
:1023d0009e00900000804000100798001e009000b2
:1023e000c200de00b04721000008b8000100d100a3
:1023f000004f78001e80fb000003b000c3ff070001
:102400009e80fb00c0f92f000088b9000000780012
:102410009e00900000804000100798009e009000f1
:10242000d0cc2c000008b8004308de00004f780034
:102430001e80fb000003b000b4ff07009e80fb007d
:1024400060ff2f000088b900000078009e00900017
:1024500000804000100798001e0090000003b000ac
:10246000aaff07000080fa00000006000400fa003e
:102470001007980000032000a4ff07008007200039
:10248000a2ff07001e0090004400de00004f78000d
:102490001e4078000b0007000080fb009bff070038
:1024a0001e009000004078006f4f60001e407800d2
:1024b000040007000080fb0094ff07000080fa0082
:1024c000000006000200fa00004f78001e4078006d
:1024d000e94f500003003e0001c3b3001ec040009e
:1024e0001e0037001e80fb00ec0f5000120032006f
:1024f000ec0f500005003c00ea0f50000a003200cb
:10250000eb0f50000a00320013003700ee0f5000ae
:102510000d003200ee0f500009003500ef0f5000a3
:102520000b0032000c00370010c4b3000b00370062
:1025300020c4b3000900370030c4b30007003700df
:1025400040c4b3000500370050c4b3000300370097
:1025500060c4b30001003700000037000080fa00bb
:10256000000006000600fa00100798004147980096
:102570000040eb00004f78000f0037001e80fb008a
:102580009e00900000804000104078000004e000b1
:10259000080032001e80fb009e009000008040007a
:1025a000104078000080fb00b0ff0700e0732800b7
:1025b0006aff07001e4fe8004e4090009e407800e2
:1025c00080cf5000edff39000080fa0000000600c7
:1025d0000000fa000223ef000423ef000823ef00bd
:1025e00030002000801888001423ef001623ef002d
:1025f0001823ef001a23ef000103a80000c3a9006d
:102600000123a90010022800001888000080fa00a9
:10261000000006000400fa00000f7800110798007f
:102620000000000040188000620060000000e00030
:10263000fcff3a001e007800104078000080fb008c
:10264000601888000000000041188000000220008f
:10265000008060000000e000fbff3a00601880008e
:10266000804078001e009000014878000080fa0049
:10267000000006001800fa00100f9800210f9800c3
:10268000320f98000000eb00000f78000000eb0014
:10269000100798000000eb00700798000000eb00a6
:1026a000000f980010002000600798001e0890009e
:1026b0000000e00005003a000000eb005007980021
:1026c000700047002007980004003700ee009000db
:1026d000510798009e089000210798003e0890003e
:1026e0000000e00005003a000000eb004007980001
:1026f0006e0047003007980005003700ee0090009c
:1027000041079800be0890003107980000000000c3
:1027100040188000620060000000e000fcff3a000a
:102720001d00370040188000620060000000e000db
:1027300009003a002e009000104078000080fb0055
:1027400060188800ae0090005e009000008040009d
:10275000200798001e0fe8004118800000022000aa
:10276000008060000000e0000b003a00601880006c
:10277000804078003e00900001487800be00900044
:102780004e00900000804000300798001e0090002e
:102790000000e800100798002e0890009e007800c6
:1027a000808f5000dfff3900100037004118800093
:1027b00000022000008060000000e0000b003a00f2
:1027c00060188000804078003e009000014878004a
:1027d000be0090004e00900000804000300798003e
:1027e0001e0090000000e800100798009e00900076
:1027f0002e089000808f5000ecff39001e007800fa
:102800000080fa00000006000400fa00204798004b
:102810000e80e8008e0078007eff07001e407800e2
:102820000080fa00000006000600fa00000f7800a1
:1028300011079800220798002e0190009e0090003a
:102840001e0078008bff07000080fa0000000600e1
:102850000000fa0001188000008020000080600065
:102860000000e000020032002000200008003700d5
:102870000118800000402000008060000000e0009f
:102880000200320010002000010037000000eb00c1
:102890000080fa00000006000000fa0040188000e6
:1028a0000080fa00000006000200fa00e0042000a8
:1028b000f0168800e1e2a900e122a8008620a90024
:1028c000e1e2a800d0168000000f78002900070080
:1028d0000080fa00000006000000fa00000000007e
:1028e00000178000610060000000e000fcff3a007b
:1028f00000178000620060000000e000f8ff3a006e
:1029000000178000640060000000e000f4ff3a005f
:1029100000178000680060000000e000f0ff3a004f
:1029200000178000700060000000e000ecff3a003b
:102930002117800000002400008060000000e000fb
:10294000e7ff3a000080fa00000006000000fa00ed
:10295000e002a800e0ff07000080fa000000060087
:102960000000fa00e022a800dbff07000080fa0068
:10297000000006000000fa00e042a8000100370055
:102980000000000000178000640060000000e0000c
:10299000fbff3a00e062a9008620a900e4e2a9005a
:1029a000e542a900ccff07000080fa000000060005
:1029b0000200fa00000f78000000000020178000dd
:1029c000610060000000e000fcff3a008620a900e2
:1029d0001e007800e0168800211780000008200003
:1029e000008060000000e000020032000080eb0088
:1029f00005003700b8ff0700201780004f00de00f9
:102a0000004078000080fb000080fa000000060013
:102a10000400fa00204798000040eb00004f7800c7
:102a2000e062a8000000000000178000680060005d
:102a30000000e000fcff3a00010037000000000049
:102a400020178000620060000000e000fbff320001
:102a5000d0168000004f78002e409000614060004a
:102a60000080fb00610060004500dd00021780006f
:102a7000f1fd2f0081006100010070000017880047
:102a8000e082a800000000000017800070006000d5
:102a90000000e000fcff3a001e4078000080fa00d1
:102aa000000006000400fa00004f7800114798006b
:102ab00022479800a5ff07001e00fb00bcff07008f
:102ac0001e4090000000fb00b9ff07002e40900060
:102ad0000000fb00b6ff0700a6ff07000080fa0019
:102ae000000006000400fa002047980031479800d3
:102af00096ff07002e4090000000fb00acff07008f
:102b00003e4090000000fb00a9ff070094ff070073
:102b10002e4090000004a0000000fb00a4ff07006e
:102b200010c0b300baff0700004f780091ff070004
:102b30001e4078000080fa00000006000400fa0041
:102b40001007980081ff07001e00900098ff070003
:102b5000004f780087ff07001e4078000080fa00d1
:102b6000000006000e00fa007b0007003173280009
:102b700004000900315f78005e00b1006501470084
:102b80008173280004000900315978008fe1a80002
:102b90008fc1a9008fa1a8008f21a900606e280015
:102ba000eefd070012c0b30041c0b30040c1b30046
:102bb00093f9070011c0b3000e007800f6f9070082
:102bc0006500470011c0b300e3f90700107028004a
:102bd000e2fd070010c0b300b3fa0700207228001e
:102be000defd07008ea1a80000402200410f20005a
:102bf0008c00070010c0b300f1f907000004e000ea
:102c0000140032006a00470011c0b3001bfa07002d
:102c10002e4890000080fb0014fe07003e48900004
:102c20000080fb0011fe07004e4890000080fb0072
:102c30000efe07005e4890000080fb000bfe0700c0
:102c4000f0722800c5fd07006a00470041c0b300cc
:102c5000e9fb07008ea1a90000402200410f2000df
:102c600070000700dfff37000200fa00004f780015
:102c700036ff0700600420004dff07001e80fb00a8
:102c80004bff07003bff07000080fa000000060032
:102c90000200fa00881f7800000f78002bff070061
:102ca0007004200042ff07000040eb0058ff0700bf
:102cb0009e007800804878001e04e80010c0b30031
:102cc00053ff0700004c780003ff070029ff0700af
:102cd0004f0478000080fa00000006000400fa00ab
:102ce000004f78001107980010c0b300deff070006
:102cf0001e80fb00e10f500007003200e20f500081
:102d0000080032000000e00009003a0030c2b300c1
:102d1000d5ff07000900370000c2b300d2ff07004b
:102d20000600370010c2b300cfff070003003700d2
:102d300000c2b300ccff07000000000000402d00df
:102d400001032000370007001e009000d0ff07009d
:102d50000080fa00000006000000fa0015000700dd
:102d60000400070049fd0700cffe07000080fa00bd
:102d7000000006000000fa000001eb0060042000e3
:102d800071052000031020008049780081497800f7
:102d90008249780000002300100888000621ef0017
:102da0006821ef006a21ef006c21ef000080fa003b
:102db000000006000000fa008421ef008e21ef00e1
:102dc000f0002000000c8800f0fe2f00500c88005e
:102dd0008aa1a9005620ef005820ef005a20ef00ea
:102de0006e20ef007020ef007220ef008621ef00d0
:102df0009021ef00f0002000400c88009221ef00ad
:102e00008b21a9008be1a9008bc1a9008b41a900ee
:102e10008ba1a9008b81a9008b61a8000080fa001a
:042e200000000600a8
:020000040000fa
:102e2400f03fb1000180b10006003500ee03090057
:102e340000000000403fb1000180b100fbff3d00f5
:102e44001000b000203fb0000200350000800900ef
:082e5400000000000000060070
:020000040000fa
:102e5c0006080000020000008000000000080000ce
:0c2e6c00060000008000000000000000d4
:020000040000fa
:020000040002f8
:04aff000fff300006b
:020000040000fa
:020000040002f8
:04aff400fff6000064
:020000040000fa
:020000040002f8
:04aff8009fb1000005
:020000040000fa
:020000040002f8
:04affc003f3f0000d3
:00000001FF
