:020000040000fa
:080000000002040000000000f2
:020000040000fa
:0400080010030000e1
:020000040000fa
:04000c0010030000dd
:020000040000fa
:0400100010030000d9
:020000040000fa
:0400140010030000d5
:020000040000fa
:0400180010030000d1
:020000040000fa
:04001c0010030000cd
:020000040000fa
:0400200010030000c9
:020000040000fa
:0400240010030000c5
:020000040000fa
:0400280010030000c1
:020000040000fa
:04002c0010030000bd
:020000040000fa
:0400300010030000b9
:020000040000fa
:0400340010030000b5
:020000040000fa
:0400380010030000b1
:020000040000fa
:04003c0010030000ad
:020000040000fa
:0400400010030000a9
:020000040000fa
:0400440010030000a5
:020000040000fa
:0400480010030000a1
:020000040000fa
:04004c00100300009d
:020000040000fa
:040050001003000099
:020000040000fa
:040054001003000095
:020000040000fa
:040058001003000091
:020000040000fa
:04005c00100300008d
:020000040000fa
:040060001003000089
:020000040000fa
:040064001003000085
:020000040000fa
:040068001003000081
:020000040000fa
:04006c00100300007d
:020000040000fa
:040070001003000079
:020000040000fa
:040074001003000075
:020000040000fa
:040078001003000071
:020000040000fa
:04007c00100300006d
:020000040000fa
:040080001003000069
:020000040000fa
:040084001003000065
:020000040000fa
:040088001003000061
:020000040000fa
:04008c00100300005d
:020000040000fa
:040090001003000059
:020000040000fa
:040094001003000055
:020000040000fa
:040098001003000051
:020000040000fa
:04009c00100300004d
:020000040000fa
:0400a0001003000049
:020000040000fa
:0400a4001003000045
:020000040000fa
:0400a8001003000041
:020000040000fa
:0400ac00100300003d
:020000040000fa
:0400b0001003000039
:020000040000fa
:0400b4001003000035
:020000040000fa
:0400b8001003000031
:020000040000fa
:0400bc00100300002d
:020000040000fa
:0400c0001003000029
:020000040000fa
:0400c4001003000025
:020000040000fa
:0400c8001003000021
:020000040000fa
:0400cc00100300001d
:020000040000fa
:0400d0001003000019
:020000040000fa
:0400d4001003000015
:020000040000fa
:0400d8001003000011
:020000040000fa
:0400dc00100300000d
:020000040000fa
:0400e0001003000009
:020000040000fa
:0400e4001003000005
:020000040000fa
:0400e8001003000001
:020000040000fa
:0400ec0010030000fd
:020000040000fa
:0400f00010030000f9
:020000040000fa
:0400f40010030000f5
:020000040000fa
:0400f80010030000f1
:020000040000fa
:0400fc0010030000ed
:020000040000fa
:0401000010030000e8
:020000040000fa
:0401040010030000e4
:020000040000fa
:0401080010030000e0
:020000040000fa
:04010c0010030000dc
:020000040000fa
:0401100010030000d8
:020000040000fa
:0401140010030000d4
:020000040000fa
:0401180010030000d0
:020000040000fa
:04011c0010030000cc
:020000040000fa
:0401200010030000c8
:020000040000fa
:0401240010030000c4
:020000040000fa
:0401280010030000c0
:020000040000fa
:04012c0010030000bc
:020000040000fa
:0401300010030000b8
:020000040000fa
:0401340010030000b4
:020000040000fa
:0401380010030000b0
:020000040000fa
:04013c0010030000ac
:020000040000fa
:0401400010030000a8
:020000040000fa
:0401440010030000a4
:020000040000fa
:0401480010030000a0
:020000040000fa
:04014c00100300009c
:020000040000fa
:040150001003000098
:020000040000fa
:040154001003000094
:020000040000fa
:040158001003000090
:020000040000fa
:04015c00100300008c
:020000040000fa
:040160001003000088
:020000040000fa
:040164001003000084
:020000040000fa
:040168001003000080
:020000040000fa
:04016c00100300007c
:020000040000fa
:040170001003000078
:020000040000fa
:040174001003000074
:020000040000fa
:040178001003000070
:020000040000fa
:04017c00100300006c
:020000040000fa
:040180001003000068
:020000040000fa
:040184001003000064
:020000040000fa
:040188001003000060
:020000040000fa
:04018c00100300005c
:020000040000fa
:040190001003000058
:020000040000fa
:040194001003000054
:020000040000fa
:040198001003000050
:020000040000fa
:04019c00100300004c
:020000040000fa
:0401a0001003000048
:020000040000fa
:0401a4001003000044
:020000040000fa
:0401a8001003000040
:020000040000fa
:0401ac00100300003c
:020000040000fa
:0401b0001003000038
:020000040000fa
:0401b4001003000034
:020000040000fa
:0401b8001003000030
:020000040000fa
:0401bc00100300002c
:020000040000fa
:0401c0001003000028
:020000040000fa
:0401c4001003000024
:020000040000fa
:0401c8001003000020
:020000040000fa
:0401cc00100300001c
:020000040000fa
:0401d0001003000018
:020000040000fa
:0401d4001003000014
:020000040000fa
:0401d8001003000010
:020000040000fa
:0401dc00100300000c
:020000040000fa
:0401e0001003000008
:020000040000fa
:0401e4001003000004
:020000040000fa
:0401e8001003000000
:020000040000fa
:0401ec0010030000fc
:020000040000fa
:0401f00010030000f8
:020000040000fa
:0401f40010030000f4
:020000040000fa
:0401f80010030000f0
:020000040000fa
:0401fc0010030000ec
:020000040000fa
:0402080010030000df
:020000040000fa
:04020c0010030000db
:020000040000fa
:0402100010030000d7
:020000040000fa
:0402140010030000d3
:020000040000fa
:0402180010030000cf
:020000040000fa
:04021c0010030000cb
:020000040000fa
:0402200010030000c7
:020000040000fa
:0402240010030000c3
:020000040000fa
:0402280010030000bf
:020000040000fa
:04022c0010030000bb
:020000040000fa
:0402300010030000b7
:020000040000fa
:0402340010030000b3
:020000040000fa
:0402380010030000af
:020000040000fa
:04023c0010030000ab
:020000040000fa
:0402400010030000a7
:020000040000fa
:0402440010030000a3
:020000040000fa
:04024800100300009f
:020000040000fa
:04024c00100300009b
:020000040000fa
:040250001003000097
:020000040000fa
:040254001003000093
:020000040000fa
:04025800100300008f
:020000040000fa
:04025c00100300008b
:020000040000fa
:040260001003000087
:020000040000fa
:040264001003000083
:020000040000fa
:04026800100300007f
:020000040000fa
:04026c00100300007b
:020000040000fa
:040270001003000077
:020000040000fa
:040274001003000073
:020000040000fa
:04027800100300006f
:020000040000fa
:04027c00100300006b
:020000040000fa
:040280001003000067
:020000040000fa
:040284001003000063
:020000040000fa
:04028800100300005f
:020000040000fa
:04028c00100300005b
:020000040000fa
:040290001003000057
:020000040000fa
:040294001003000053
:020000040000fa
:04029800100300004f
:020000040000fa
:04029c00100300004b
:020000040000fa
:0402a0001003000047
:020000040000fa
:0402a4001003000043
:020000040000fa
:0402a800100300003f
:020000040000fa
:0402ac00100300003b
:020000040000fa
:0402b0001003000037
:020000040000fa
:0402b4001003000033
:020000040000fa
:0402b800100300002f
:020000040000fa
:0402bc00100300002b
:020000040000fa
:0402c0001003000027
:020000040000fa
:0402c4001003000023
:020000040000fa
:0402c800100300001f
:020000040000fa
:0402cc00100300001b
:020000040000fa
:0402d0001003000017
:020000040000fa
:0402d4001003000013
:020000040000fa
:0402d800100300000f
:020000040000fa
:0402dc00100300000b
:020000040000fa
:0402e0001003000007
:020000040000fa
:0402e4001003000003
:020000040000fa
:0402e80010030000ff
:020000040000fa
:0402ec0010030000fb
:020000040000fa
:0402f00010030000f7
:020000040000fa
:0402f40010030000f3
:020000040000fa
:0402f80010030000ef
:020000040000fa
:0402fc0010030000eb
:020000040000fa
:0403000010030000e6
:020000040000fa
:0403040010030000e2
:020000040000fa
:0403080010030000de
:020000040000fa
:04030c0010030000da
:020000040000fa
:0403100010030000d6
:020000040000fa
:0403140010030000d2
:020000040000fa
:0403180010030000ce
:020000040000fa
:04031c0010030000ca
:020000040000fa
:0403200010030000c6
:020000040000fa
:0403240010030000c2
:020000040000fa
:0403280010030000be
:020000040000fa
:04032c0010030000ba
:020000040000fa
:0403300010030000b6
:020000040000fa
:0403340010030000b2
:020000040000fa
:0403380010030000ae
:020000040000fa
:04033c0010030000aa
:020000040000fa
:0403400010030000a6
:020000040000fa
:0403440010030000a2
:020000040000fa
:04034800100300009e
:020000040000fa
:04034c00100300009a
:020000040000fa
:040350001003000096
:020000040000fa
:040354001003000092
:020000040000fa
:04035800100300008e
:020000040000fa
:04035c00100300008a
:020000040000fa
:040360001003000086
:020000040000fa
:040364001003000082
:020000040000fa
:04036800100300007e
:020000040000fa
:04036c00100300007a
:020000040000fa
:040370001003000076
:020000040000fa
:040374001003000072
:020000040000fa
:04037800100300006e
:020000040000fa
:04037c00100300006a
:020000040000fa
:040380001003000066
:020000040000fa
:040384001003000062
:020000040000fa
:04038800100300005e
:020000040000fa
:04038c00100300005a
:020000040000fa
:040390001003000056
:020000040000fa
:040394001003000052
:020000040000fa
:04039800100300004e
:020000040000fa
:04039c00100300004a
:020000040000fa
:0403a0001003000046
:020000040000fa
:0403a4001003000042
:020000040000fa
:0403a800100300003e
:020000040000fa
:0403ac00100300003a
:020000040000fa
:0403b0001003000036
:020000040000fa
:0403b4001003000032
:020000040000fa
:0403b800100300002e
:020000040000fa
:0403bc00100300002a
:020000040000fa
:0403c0001003000026
:020000040000fa
:0403c4001003000022
:020000040000fa
:0403c800100300001e
:020000040000fa
:0403cc00100300001a
:020000040000fa
:0403d0001003000016
:020000040000fa
:0403d4001003000012
:020000040000fa
:0403d800100300000e
:020000040000fa
:0403dc00100300000a
:020000040000fa
:0403e0001003000006
:020000040000fa
:0403e4001003000002
:020000040000fa
:0403e80010030000fe
:020000040000fa
:0403ec0010030000fa
:020000040000fa
:0403f00010030000f6
:020000040000fa
:0403f40010030000f2
:020000040000fa
:0403f80010030000ee
:020000040000fa
:0403fc0010030000ea
:020000040000fa
:10040000ef8c20000e7f22000e018800000000000b
:10041000000020000000e000020032000001200087
:100420002002880014000700d30007000000e0004d
:1004300003003a00c00c2200010020000200370037
:100440000000200001002000810f70000100320038
:1004500014000700000020000000e000020032004d
:10046000000002000000000028220200000000003e
:100470000040da000000fe004440a900a043200034
:100480000000e000030032000020200090018800fe
:100490004440a800000006008a1f78008b1f7800e7
:1004a00000000600a1028800800478000000eb0034
:1004b0001f003700e284440054a0b4009905ba003c
:1004c000e284440054a0b4009906ba00e2844400d7
:1004d00054a0b4000006eb00476fde00fd07b20039
:1004e000ae018800636ce10003003a00eaff0700f8
:1004f0000000eb000e003700606ce10008003a00dd
:10050000004deb000a05e800020039003420ec0041
:100510000af0a0008b05e900f9ff3e000400370057
:100520006168e100010032000086eb000b0007006b
:1005300019c7ba001905ba000e04e00003003a001a
:100540000a00e000dbff3a0000000600fe07b200f0
:10055000ae0288008a047800f5ff37000cd0a300b3
:10056000e20f4d001c00390089027800354dba00b9
:100570000a05e800020039003420ec000af0a0006f
:100580008b05e9000f003200254dba000a05e8008e
:10059000020039003420ec000af0a0008b05e900cd
:1005a000080032000c00e0000600320015cdba0051
:1005b0000a05e800020039003420ec000af0a0002f
:1005c0008b05e9008984e80054a0b4000b00e0002a
:1005d000e2ff3a00000006009902ba00055d7800cb
:1005e0008b05e900f7ff3200c82ade00055d7800c0
:1005f0008b05e900f3ff32000c00e000f1ff320050
:1006000019ddba00eeff3700000000000000000016
:1006100000000000000000000000000000000000da
:100620000040da000000fe000a00fa00110020007d
:10063000b1bf9f00c0bf9f006a8057009a060700a5
:100640004fb897000080fa00000006000a00fa0088
:1006500051002000b1bf9f00c0bf9f006a805700bb
:10066000930607005fb897000080fa0000000600bc
:10067000889fbe0080047800604680000000e00093
:1006800004003a000e0007000084eb000000e000c8
:1006900008003500684680000900e00005003200cf
:1006a00009004400060007000000e00001003d00d2
:1006b0000084eb00080078004f04be000000060034
:1006c000800078000100e00003003a0000002000f4
:1006d00060468800000005000080eb00020020005a
:1006e000828f500002003e00614688000000eb004f
:1006f000000006000800fa00100798002107980083
:1007000032079800000000009111800000102000c6
:10071000008060000000e000fbff3200be0090009f
:10072000010f78000e0037000000000091118000da
:1007300000102000008060000000e000fbff32009d
:100740002e009000104078000000fb00a0118800ef
:100750002e0090000000e800200798001e0fe9001e
:100760001e0078000000e000efff3a003e0090001d
:100770000080fa00000006000000050081822000d1
:100780006a000700800078000080eb000100e000b4
:100790000400350081822000a00020000200070034
:1007a0004f80de0000000600889fbe008a1f780090
:1007b0000004be00c900900069009000808f5000c6
:1007c0000500390009007800b70007008080eb00c1
:1007d0000000e00016003500084578004900900050
:1007e00008587800c00498001900780000b8a300e9
:1007f00004003a0000a8a30007003200ea4f5400aa
:1008000005003a00090078000d0007008080eb0029
:100810000000e00006003a0000c02000190060005f
:100820000200320049009000e00498008a80fb003a
:10083000010078004f0578004f04be00000006005c
:10084000889fbe008a1f7800000478000800e0003e
:100850000d003a0068872000700544008004eb001a
:10086000580078000000e00004003200f4ff0700a8
:100870000000e00001003d008084eb008a0f54007e
:10088000f7ff3a0025003700000022001800600042
:100890008004eb0021003200a80490000f00370014
:1008a00009015100384090000000fb0089007800e9
:1008b00090ff07000000e00007003c0028009000c7
:1008c0004004980060049800500c98001890a00014
:1008d0008084eb00110037008084440048019000c0
:1008e000828f5400eeff39002800900040049800e9
:1008f0009800780002c020000281600001003a00e8
:100900003800900001e8a300020032006004980063
:1009100001003700500c98008004eb0009007800bb
:100920004f0578004f04be0000000600889fbe00ff
:100930008a9fbe0080047800010478002c003700f4
:10094000c800900068009000808f500004003900bb
:1009500008007800540007000000e0003700350070
:10096000004020001800600009003200a1002000b3
:100970000900780042000700800578000b00e000c5
:1009800003003200618514000a8545000400370029
:100990000900780034000700000578008005eb00ae
:1009a00048009000e8009000808050008a8f50003e
:1009b00002003100010578008005eb000a01780093
:1009c0008900780021000700480090000a004000dc
:1009d000400498000b00e00004003200080078009a
:1009e00097ff07000000e00014003a008a844400ea
:1009f0001904e000d2ff3a000080200018006000d7
:100a000006003200080078008dff070080007800a3
:100a10000080eb000100e00009003a0001c0200066
:100a2000988060000000eb00050032004800900054
:100a3000600498000000eb00010037000080eb002c
:100a40004f05be004f04be00000006008001780084
:100a500002003700b15978000201e9000200e0000d
:100a6000fcff3a00000006008000780001017800d9
:100a70003104e000fdff3a000000510000000600d4
:100a80000001eb0000027800b041780081cf5100f6
:100a900001003a00040178000304e000f9ff3a0085
:100aa0000200780000000600889fbe008a1f7800c0
:100ab00000047800c8009000680190000000eb007e
:100ac000828f50003c003900180078002200290075
:100ad00002016000e20f51000700320001202400f3
:100ae0000000e00001003d0001202000008c7000ab
:100af0000080eb003000370002002600020060009a
:100b0000820f500009003a0038009000808f50009a
:100b1000060039000800780049ff070080007800cf
:100b20000080eb000100e00023003a001805780087
:100b300000c020000000650018003a00a8049000e2
:100b40006002200008004000808f540013003a002b
:100b5000002020001d030700200498000000e00092
:100b600005003a0029049800490498008904e80027
:100b700039049800080037000a60a0000a0c7800c9
:100b8000400498000120200080804000310498003b
:100b9000400c9800500c98000c00070028009000b2
:100ba000500498003800900060049800000026006f
:100bb000180c70000000eb004f0578004f04be00d9
:100bc000000006008068200061003700881f780060
:100bd000888c20001804e00003003a00f9ff0700a9
:100be00020c0b300004c78004f04780000000600dd
:100bf000889fbe00000478000800780010ff0700fe
:100c00008004780000042000180060000200320018
:100c100028009000340207000000eb002004980038
:100c2000384090000004e000050035000000fb00a3
:100c30007dfe07000000e000010032008084eb0030
:100c4000181090000000e000080032007ffe07004e
:100c50000000e000010032008084eb0018109000da
:100c6000210207000000eb0010149800000820008b
:100c700018006000150032000001eb006000b800b1
:100c8000838720000202d00063027a00880f52009e
:100c900005003a00000040008180480000804100cb
:100ca0000008eb000600370061004000e0804800cb
:100cb0000201e800e80f5000e08f5800f0ff3a0012
:100cc00008007800080207000e003700000c7800ca
:100cd00000c0eb0030449800600220000800400093
:100ce000200498004004980050049800400c98009c
:100cf00060049800500c980070049800760044003e
:100d0000000c9800090078004f04be0000000600a7
:100d1000881f78000004eb006140b800e2ff2f005c
:100d2000f3ff2f00060507006288200062007800ac
:100d30000000e00001003200adff07000804e800f9
:100d4000e80f5400f4ff3a004f047800000006005a
:100d5000010020000100e0000800320001008000d6
:100d60000100e000050032008100e9000100880078
:100d70008100d0000200800000b178000000060071
:100d8000889fbe000004780001007800820478008b
:100d90008801780009017800110020000402070092
:100da000890f5000010032000004eb0008007800b9
:100db0004f04be00000006000000fa00e881570062
:100dc0004fb9970081822000006c200002000700cc
:100dd0000080fa00000006006200fa00889fbe0052
:100de0008a1f7800000578008104780002047800ea
:100df0008300780080f92f000f004000a80407004e
:100e00009a979f00a9979f000000eb00b09f9f005a
:100e10001885fb008a04fb000a05ea004f55de0036
:100e200050022000808f54000d003200e10f550069
:100e30000b003a000a017800880078002f90970094
:100e40009f91970003000100a0979f000000e00021
:100e50008e0032003f9897000000e800b09f9f008e
:100e60000a04440050022000808f54000400320025
:100e70000900e000e6ff3a003f9897008400370041
:100e80000000eb00909f9f00809f9f00f0979f00c5
:100e9000e0979f00d0979f00c0979f000700370002
:100ea000e18b20000100500000004000218b200059
:100eb00061007800df98970001007000d09f9f00cc
:100ec0008804780009047800384578008a00fb001f
:100ed000e08b2000710207000000e000f0ff3a0004
:100ee000a1c2b300814f55000e003a00cf88970091
:100ef0000180e900c08f9f0010007800c09f9f0014
:100f00000000e00005003d000000ea00c09f9f00d7
:100f10005f9897000020a000d09f9f000904e80080
:100f20000f003700c09f9f000000eb000500370056
:100f3000f2ff2700820f5000020032006a01b90060
:100f4000028040000904780088047800b900fb00a2
:100f50000103b100e98f5000f5ff3600c09f9f00ec
:100f6000e0c2b300984f1000020032000080eb0096
:100f700019003700a0c2b300d84f100007003a0094
:100f8000cf8897000180e900c08f9f001000780093
:100f9000a09f9f000804e800100037000000eb004d
:100fa000a09f9f008800780005003700f3ff27000e
:100fb000830f5000020032006a02b90004004100b1
:100fc00001047800880078003101fb000203b100c1
:100fd000e90f5100f5ff3600a09f9f00984478006c
:100fe0008900fb00a08a20002c0207000000e0001e
:100ff000020032000804e800010037008044eb00e2
:10100000c97f9f0080c6b30080cf540004003a001f
:1010100098cf14000a003a006640500006003700de
:10102000c0c6b30080cf540005003a0098cf14002a
:1010300003003a0065404000c07f9f000804e800bc
:101040001801fb00e3fb2f008f81410081f92f0085
:101050008f804000a0f92f000f0040001000070013
:101060000000e00009003a00e1fb2f008f80400003
:10107000a0f92f000f0040004d0307000000e00022
:10108000020035000804e80061ff37000080eb0033
:101090004f0578004f04be000080fa0000000600f3
:1010a000889fbe008a9fbe00e4c6b300844f5100f3
:1010b000be00320010003c006b425200844f5100d1
:1010c0001800320005003c0054c2b300844f5100a8
:1010d000f600320084c5b3000f00370044c6b300e9
:1010e000844f51001400320065424200844f510089
:1010f000f1003a001000370004c7b300844f5100dc
:10110000dd0032005600350065424200844f510038
:101110005300320063424200844f5100e6003a001f
:101120004f0037001181e90082087800f00090003c
:1011300012417800de00370020629000c5c6b3007f
:10114000854f520007003a009102780064825200f5
:10115000840878001402be004fabde0086037800de
:101160001400370015c7b300854f520003003a0042
:10117000110478006802540005003700a5c6b300ca
:10118000854f520006003a009104780068825400ae
:10119000840878005403be004402be0005003700f6
:1011a0001182e9008408780014027800cfa2de00e2
:1011b000612bb9000498be000690be00a0609000ac
:1011c00088c6b30088cf50000d00320028c6b30097
:1011d00088cf500004003a000402fb00cfa2de00da
:1011e000612bb9000800370048c7b30088cf500012
:1011f000030032006644440088cf500004003a00e7
:10120000cfa2de00612bb9000498be000690be009c
:101210003002be002003be00f0009000e00f52003c
:10122000e08f5a00e00f5b00e08f5b0002003d00a2
:10123000d4c2b30008003700001290000418a300c5
:1012400002003200b4c2b300030037000408a30058
:101250005100320004c2b30084f178004c00370022
:1012600020629000c5c6b300854f520008003a00c6
:101270001105780064025500840878001404be004b
:101280006055b8000802be000a03be001400370013
:1012900015c7b300854f520003003a00910478004f
:1012a0006882540005003700a5c6b300854f520080
:1012b00006003a001105780068025500840878009d
:1012c0005403be004402be00050037001182e9004d
:1012d00084087800140278008002eb006033b800c4
:1012e0000498be000690be00a060900088c6b300bf
:1012f00088cf50000d00320028c6b30088cf5000c0
:1013000004003a000482fb008002eb006033b80066
:101310000800370048c7b30088cf500003003200f0
:101320006644440088cf500004003a008002eb007d
:101330006033b8000498be000690be008010900094
:101340000138a300140032003002be002003be00aa
:10135000e00f5200e08f5a00e00f5b00e08f5b006f
:101360000d00320081c7b300814f510003003200ed
:1013700081c5b300814f510007003a00f000900092
:1013800004c3b30084f178008100e80082f17800a2
:101390008100e80071009800f00090008181410018
:1013a00063009800824078003e003700a061900002
:1013b000c4c6b3001181e90084cf5100220032007d
:1013c0000a003c006442520084cf510025003200e4
:1013d00004c2e80084cf510013003200684252007a
:1013e00084cf51001e003a000a00370044c7b30002
:1013f00084cf51001b0032006642420084cf51006e
:10140000180032006942520084cf510014003a00a3
:10141000050037008208780092007800405890005c
:10142000804878002c00370082087800920078000d
:10143000600a9000cfa2de00612bb9008498be0044
:101440008690be0024003700820878009200780061
:1014500060099000cf91de008288be001e00370038
:101460001181e900820878009200780060089000fd
:1014700080087800180037001181e90082087800a0
:1014800012027800cfa2de00612bb9000498be00e2
:101490000690be00f000900081814100630098003a
:1014a00081c7b300130107000b003700f000900064
:1014b00082f1780006003700f00090008181410041
:1014c0000204e00001003a0052c2b30082497800f1
:1014d0008100e800710098000000eb004f05be009d
:1014e0004f04be00000006000000e0002f003200a4
:1014f000c0017800e38f51002c0036000308a300e0
:101500002a003a00314680000100e000020032006b
:10151000810f50000400310011009800304688000f
:101520001600370082007800110190000200e000f0
:1015300002003200800f5100faff390011027800da
:1015400084824000850f500018003900808f5200bf
:1015500003003a00830842000100780007003700ca
:101560000200e0000300320083014000830f5100bd
:101570000e00390012009800900098009000900032
:101580000100e0000900320010014000828f50008d
:1015900006003a00428c20000009eb0010017800a0
:1015a0001108410091009000110098000000060011
:1015b000889fbe008a9fbe008c9fbe008e1f780051
:1015c00000067800010478000200780083047800a7
:1015d0000881b900020778000200e00042003200f2
:1015e0000800e0004100320082057800c900900048
:1015f00069009000808f50000400390009007800d5
:1016000029fd07000000e00029003500004020000f
:10161000190060000a0032000b017800a1002000d0
:101620000c00780093000700800678000d00e000b1
:1016300006003200610516000a85460004003700e6
:101640000b0578008006eb00010037000b057800e1
:1016500049009000e9009000808050008a8f50007f
:1016600002003100010578008006eb000a017800d5
:101670008c007800f5fc07008a8555004900900031
:101680000a004000c00498000d00e0000400320091
:10169000090078006afc07000000e00004003a003e
:1016a0000b00e000020032000a064600cfff3700c0
:1016b000008020001900600002003200090078005c
:1016c0005ffc070000c0200019006000020032002b
:1016d00049009000e00498008b05570011000900b4
:1016e0008885d800010037000000eb004f07780024
:1016f0004f06be004f05be004f04be0000000600ae
:10170000889fbe0000047800214680000100e000b0
:1017100002003200010078000d00370031468000e1
:10172000608c200004003700910f54002500360023
:101730000180e800910090000100e000faff3a000b
:1017400010003700920f54001e0036000280e8009f
:10175000100178000200e000faff3a001101780061
:1017600031468000608c200004003700910f540047
:10177000140036000180e80091009000828f500034
:10178000faff3a0059468000888f5400010031006a
:1017900088047800090078004c0007000000e00091
:1017a00004003a00888f5400050032008904d100fb
:1017b000f5ff3700091878004bff0700d2ff37000c
:1017c0000000eb004f04be0000000600881f7800f8
:1017d000630440000800a1008000eb00800f54006b
:1017e00021003600e30f540001003e0048002000b5
:1017f00008007800c2ff07008000eb000000e00056
:101800001900320090007800910178006481510045
:10181000880f510003003100110190000208780088
:10182000070037000881400002087800910190000d
:10183000130198001001780011091400880878003d
:10184000100178000000eb000200e000040032000c
:10185000920190000300e000010032000280e800e5
:10186000204688008180e800010078004f0478005d
:101870000000060003003700b0cf10000500320062
:101880000201e900800178000200e000faff3a005e
:101890000000050003007800000006000200370089
:1018a0000304e00006003200000178000200780026
:1018b000b041780081cf5100f9ff3a0001003700b4
:1018c0000001eb00020078000000060080007800b4
:1018d0000000eb000100e00005003400010078008a
:1018e00063fb0700e10f400001003a000000eb003d
:1018f00000000600fc874700889fbe008a9fbe004c
:101900008c9fbe008e1f78000006780080c5b30053
:1019100080cf50000a0032007740400080cf500056
:101920000a0032006940400080cf50000b003200b6
:101930009089200080bf9f00ae0020000a00370081
:101940008288200082bf9f00060037009389200014
:1019500083bf9f008e002000030037009489200081
:1019600084bf9f000e0120003c02be002c03be007d
:101970000605be000404be0040c6b30080cf500080
:10198000030032006540400080cf50000b003a0059
:10199000e00f5200e08f5a00e00f5b00e08f5b0029
:1019a00006003d006000b8006011b800040450005b
:1019b000858458000605590087855900e80f5700af
:1019c0000400320040002000f00f570038003a00b9
:1019d0000100370030002000e00f5400e08f5c0071
:1019e000e00f5d00e08f5d0004003a00dc0890002d
:1019f0008d0120000100e000060032008e00e900a9
:101a0000888060008fba9700e5c07800f1ef9f00f2
:101a10007d012000800078008100e900050033008e
:101a20008b05d1000a85d3008984d3000884d300b4
:101a3000f9ff3700089ebe000a96be00120037006c
:101a40008d06e9008e00e900848060000fb99700e0
:101a5000e2c1780082fd2f000f01410003f17e00fa
:101a6000800078008100e900050033008783d10001
:101a70000683d3008582d3000482d300f9ff3700a8
:101a8000049ebe000696be003c02be002c03be00b3
:101a9000e00f5200e08f5a00e00f5b00e08f5b0028
:101aa0008b0034000d00e000e5ff3c0088003700ab
:101ab0002c60900081c6b300814f50000b003200b3
:101ac00006003c000004e00008003200e6c05000c0
:101ad000814f50004e003a0004003700c1c6b300e9
:101ae000814f50004a003a00210037000800e00012
:101af00004003a005c0890008d0120000000e00026
:101b000006003200110009000e84d8000fb99700ba
:101b1000e2c07800f1ef9f007d0120001100090074
:101b20000e84d8000a003700110009000e04d80006
:101b30008d06e9000e81b900020454008fb89700a9
:101b400061417c0081fd2f008f80400082f07e008b
:101b5000000478000800e000020032000d00e00000
:101b6000f1ff3c00cfc4de00614db9002500370015
:101b7000e00f5400e08f5c0004003a005c08900025
:101b80008d0120000000e000070032006171b90003
:101b90000800be00670107008fb99700e341780095
:101ba000f3ef9f007d0120006171b9000800be00c5
:101bb000500107000b0037006171b9000800be003a
:101bc0003d0107008d06e90000f1b9000204540050
:101bd0000fba9700e4427c0084fd2f000f02420000
:101be00005f27e000004be00e00f5000e08f5800b8
:101bf000020032000d00e000efff3c004fcdde00a0
:101c00008a057800089ebe000a96be0030003700a4
:101c1000e00f5400e08f5c00e00f5d00e08f5d009e
:101c200004003a005c0890008d0120000000e000f4
:101c3000090032006172b900612bb9000800be00d2
:101c40000a01be00e40107000fba97006442780061
:101c5000f4ef9f007d0120006172b900612bb90093
:101c60000800be000a01be00d40107000d003700c5
:101c70006172b900612bb9000800be000a01be0004
:101c8000d90107008d06e90000f2b90004045400f0
:101c90008fba970065427c0085fd2f008f8242003d
:101ca00084f27e00009ebe000296be003c04be0090
:101cb0002c05be00e00f5400e08f5c00e00f5d00db
:101cc000e08f5d00020034000d00e000e8ff3c0002
:101cd000e80f570010003a000c1090000038a300e5
:101ce0000d003200f78f560006003e0085fd2f00e4
:101cf0008f824200e5c07e0000c3b30080cf500059
:101d0000050032008d06e90002c3b30081fd2f00fb
:101d10008f80400082f07e0078811600120e9800bd
:101d20006c00900083fd2f008f8141008d80410069
:101d300046fb07001c089000dc089000810f500053
:101d400006003d0000805000000e98000c1090002e
:101d50000040a100001698000f0037000100e000cd
:101d60000d003d008c109000f4806000f08f50005a
:101d700009003a007c099000fc00900081005100ad
:101d80000c09900082805000008050004240a90061
:101d900001003400000e98004f0778004f06be0087
:101da0004f05be004f04be00cf01b1000000060089
:101db0000400fa00889fbe008a9fbe008c1f780036
:101dc0000004780001067800f80d9000780090007b
:101dd00080855500080890008085550018089000ff
:101de00080855500280890008085550038089000af
:101df000808555004808900080855500000222002b
:101e000090bf9f0000032300a0bf9f000810900018
:101e10000028a30015003a000b00e0001300340076
:101e20000b0578008a047800e20f550001003600a7
:101e300029002000c801900009017800ee805700b9
:101e40005800900003000100500498000000e000da
:101e50008c0032006808900009004000600c980077
:101e6000090555004240a900eeff3c0078019000b2
:101e70000200e0000c003400c80190008c007800e3
:101e80005800900003000100500498008080eb008f
:101e90000000e0007c003200e8089000780090002c
:101ea00000804000600c9800880c90000900e00061
:101eb0001100340009057800e28f5400010036005b
:101ec0002a002000c80190000a017800ec80570029
:101ed0005800900003000100500498000000e0004a
:101ee00068003200680890000a004000600c98000a
:101ef0008a845400edff3700180990000200e000ca
:101f00000c003400c8019000e800900058009000d8
:101f100003000100500498008080eb000000e00006
:101f200059003200e8089000180890000080400036
:101f3000600c9800a80c90000900e000110034002b
:101f400009057800e28f5400010036002a002000c5
:101f5000c80190000a017800ec80570058009000fa
:101f600003000100500498000000e000450032002a
:101f7000680890000a004000600c98008a845400b1
:101f8000edff3700380990000200e0000e00340039
:101f9000e80090001808900080804000c801900080
:101fa0005800900003000100500498008080eb006e
:101fb0000000e00034003200e8089000380890008b
:101fc00000804000600c9800c80c90000900e00000
:101fd0001100340009057800e28f5400010036003a
:101fe0002a002000c80190000a017800ec80570008
:101ff0005800900003000100500498000000e00029
:1020000020003200680890000a004000600c980030
:102010008a845400edff3700081090008000eb0028
:102020000028a300180032000b00e0001600340066
:102030008b04780009057800e28f54000100360017
:102040002a002000c80190000a017800ee805700a5
:102050005800900003000100500498000000e000c8
:1020600008003200680890000a004000600c9800e8
:102070008a8454004240a900eeff3c008000eb003f
:10208000010037008080eb00010078004f067800e7
:102090004f05be004f04be000080fa00000006009d
:1020a000010878000000060000c0da000000060009
:1020b00000c0da0000000600839f68000100e00015
:1020c00002003d0060001000e08018000300e00006
:1020d00002003d0060011100e081190005000700c9
:1020e0004f00e00002003b0060001000e08018009c
:1020f000000006006022b800060220000000d000a8
:102100008180d2000482d2008582d2000000a0002b
:102110000202520083825a00030031000202420090
:1021200083824a000000a1000603e900f3ff3a00a1
:1021300000000600efff07000400be0000000600dc
:10214000020ab900001bb9000200b8008100420079
:102150008100430000000600889fbe008a9fbe00e9
:1021600030044200b0844a0030054b0090854b009b
:102170006000b1000898be000a90be000440e10073
:1021800005c8e10006d0e10007d8e10002003100f7
:10219000680040001008e8004f05be004f04be0074
:1021a00000000600889fbe008a9fbe003004be006b
:1021b0002005be000418540005985c0006185d0058
:1021c00007985d00110020000440e10005c8e1000f
:1021d00006d0e10007d8e100010039008000eb00e3
:1021e000108810004f05be004f04be00000006001e
:1021f0001200fa00889fbe008a9fbe008c9fbe001e
:10220000e0b79f00f1b79f0082bf9f0093bf9f0080
:102210000605be000404be000000eb00d0b79f001e
:10222000c0b79f00b0b79f00a0b79f0090b79f00b6
:102230000006eb005fb19700cfb09700820141002c
:102240003fb097000200e00004003d0037000700a7
:102250007e805700c0ff07000300370033000700ef
:102260007e805700cfff0700dfb697000d00e0002b
:102270000c0035006fb29700ffb297000fbb9700bc
:102280009fbb970010002000010020006011b800e3
:102290000002720081827200020373008383730064
:1022a0001b0007000c06e80001042000810f560007
:1022b000e0ff3a000d00e00004003d000802be000f
:1022c0000a03be007e805700a3ff07005fa89700a7
:1022d0000000e00005003a001fb29700afb297007f
:1022e0003fb39700cfb39700090007006fb0970086
:1022f000ffb097000fb997009fb997004f06be0037
:102300004f05be004f04be000080fa00000006002a
:102310000100070000000600a4b79f00b5b79f00aa
:10232000c6b79f00d7b79f00000006004f09de0028
:1023300082817100b3b79f004f01de0081804000b1
:1023400082807000a1b79f008fb097004f09de0018
:10235000000040000200700090b79f007fa8970027
:102360004f01de00818040008280700081b79f00b5
:102370000d0007004f3ade0000004000040070002e
:10238000f0af9f00080007000402420085824a0067
:1023900006034b0087834b00dfff07000802be00e7
:1023a0000a03be00000006002fb29700bfb29700dc
:1023b0004fb39700dfb3970000000600881f780036
:1023c00018002000881f780089ff07008f87e90028
:1023d0004f04780000000600801feb0084ff070018
:1023e0008f87e90000000600889fbe008a9fbe001c
:1023f000e00f5000e08f5800e00f5900e08f5900c7
:102400000c003d006044b8006055b8000000540066
:1024100081805c0002015d0083815d001800200066
:102420001500070008003d00180007000004eb003d
:10243000050037000004eb000f00070002003d001c
:102440001200070018002000dcff07000800e00071
:10245000060032006022b8006033b800000052006d
:1024600081805a0002015b0083815b004f05be0042
:102470004f04be0000000600e00f5200e08f5a003b
:10248000e00f5b00e08f5b00000006006044b800d6
:102490006055b8000402540085825c0006035d00ac
:1024a00087835d0000000600889fbe008a9fbe00f3
:1024b0008c1f7800e00f5000e08f5800e00f5900ab
:1024c000e08f59000d003d006044b8006055b80031
:1024d0000000540081805c0002015d0083815d008a
:1024e0001c0020000820e10009a8e1000ab0e1007a
:1024f0000bb8e1000d003d00080037000006eb00be
:10250000e00f5200e08f5a00e00f5b00e08f5b00ad
:1025100006003d006044b8006055b8000402540055
:1025200085825c0006035d0087835d00aaff0700cb
:102530000c00e000060032006022b8006033b800f2
:102540000000520081805a0002015b0083815b0021
:102550004f0678004f05be004f04be000000060085
:020000040000fa
:10256000434f00004e460000494700002052000043
:102570004547000049530000544500005228000020
:10258000436f00006e66000069670000757200000e
:1025900061740000696f00006e2000005265000049
:1025a0006769000073740000657200002920000054
:1025b0003a200000200000000d0a00000045000045
:1025c0004e5f0000414100002052000045470000de
:1025d00049530000544500005220000028450000e7
:1025e0006e610000626c0000652000004175000013
:1025f000746f000020410000636b00006e6f0000ec
:10260000776c000065640000676d0000656e000077
:10261000742900003a20000020000000454e000010
:102620005f52000058410000444400005220000066
:10263000284500006e610000626c000065640000c7
:1026400020520000582000007069000070650000f2
:10265000732900003a2000002000000053450000cc
:1026600054550000505f0000415700002028000032
:102670005365000074750000702000006f66000054
:102680002041000064640000726500007373000064
:1026900020570000696400007468000029200000d1
:1026a0000d0a000000200000286300006f6d00008c
:1026b0006d6f00006e200000666f00007220000049
:1026c000616c00006c200000646100007461000017
:1026d0002070000069700000657300002920000070
:1026e0003a200000005300004554000055500000ff
:1026f0005f520000455400005220000028530000a3
:102700006574000075700000206f000066200000f6
:1027100041750000746f00006d6100007469000075
:10272000632000005265000074720000616e0000ba
:10273000736d000069730000736900006f6e000024
:10274000293a00002020000000520000465f0000ef
:1027500043480000202800005246000020430000ab
:10276000686100006e6e0000656c0000293a000090
:102770002020000000520000465f0000534500008a
:102780005455000050200000285200004620000050
:102790005365000074750000702000005265000051
:1027a000676900007374000065720000293a000038
:1027b0002020000000530000544100005455000048
:1027c000532000002853000074610000747500005d
:1027d00073200000526500006769000073740000f8
:1027e00065720000293a000020200000005200001d
:1027f000585f000041440000445200005f50000058
:102800003020000028520000656300006569000068
:1028100076650000206100006464000072650000bd
:1028200073730000206400006174000061200000e8
:10283000706900007065000020300000293a000037
:1028400000520000585f0000414400004452000064
:102850005f50000031200000285200006563000036
:102860006569000076650000206100006464000076
:102870007265000073730000206400006174000042
:1028800061200000706900007065000020310000c8
:10289000293a000000520000585f00004144000047
:1028a000445200005f500000322000002852000017
:1028b0006563000065690000766500002061000026
:1028c00064640000726500007373000020640000ff
:1028d00061740000612000007069000070650000f4
:1028e00020320000293a000000520000585f00002a
:1028f00041440000445200005f50000033200000bb
:1029000028520000656300006569000076650000dc
:1029100020610000646400007265000073730000b1
:1029200020640000617400006120000070690000f4
:102930007065000020330000293a000000520000ba
:10294000585f000041440000445200005f50000006
:102950003420000028520000656300006569000013
:10296000766500002061000064640000726500006c
:102970007373000020640000617400006120000097
:10298000706900007065000020340000293a0000e2
:1029900000520000585f0000414400004452000013
:1029a0005f500000352000002852000065630000e1
:1029b0006569000076650000206100006464000025
:1029c00072650000737300002064000061740000f1
:1029d0006120000070690000706500002035000073
:1029e000293a000000540000585f000041440000f4
:1029f000445200002028000054720000616e000064
:102a0000736d0000697400002061000064640000c0
:102a10007265000073730000293a00000052000044
:102a2000585f0000505700005f5000003020000049
:102a3000284e0000756d00006265000072200000e5
:102a40006f6600002062000079740000657300006a
:102a5000206900006e200000525800002070000025
:102a6000617900006c6f0000616400002069000063
:102a70006e2000006461000074610000207000009e
:102a80006970000065200000302900003a00000055
:102a9000525800005f500000575f000050310000a6
:102aa000202800004e7500006d6200006572000075
:102ab000206f00006620000062790000746500004d
:102ac00073200000696e00002052000058200000b2
:102ad00070610000796c00006f61000064200000ec
:102ae000696e000020640000617400006120000035
:102af000706900007065000020310000293a000074
:102b000000520000585f0000505700005f50000066
:102b100032200000284e0000756d00006265000044
:102b2000722000006f6600002062000079740000cf
:102b300065730000206900006e20000052580000fc
:102b400020700000617900006c6f0000616400007b
:102b5000206900006e2000006461000074610000c4
:102b6000207000006970000065200000322900001c
:102b70003a000000525800005f500000575f00000c
:102b800050330000202800004e7500006d620000e8
:102b900065720000206f000066200000627900006e
:102ba0007465000073200000696e00002052000070
:102bb0005820000070610000796c00006f61000017
:102bc00064200000696e0000206400006174000051
:102bd0006120000070690000706500002033000073
:102be000293a000000520000585f000050570000d2
:102bf0005f50000034200000284e0000756d00007a
:102c000062650000722000006f6600002062000014
:102c10007974000065730000206900006e200000d8
:102c20005258000020700000617900006c6f0000b5
:102c300061640000206900006e20000064610000f3
:102c400074610000207000006970000065200000c1
:102c5000342900003a000000525800005f50000084
:102c6000575f000050350000202800004e7500001e
:102c70006d62000065720000206f00006620000099
:102c8000627900007465000073200000696e000026
:102c9000205200005820000070610000796c000094
:102ca0006f61000064200000696e00002064000075
:102cb0006174000061200000706900007065000010
:102cc00020350000293a000000440000594e000061
:102cd0005044000020280000456e000061620000a2
:102ce0006c65000020640000796e0000616d0000da
:102cf0006963000020700000617900006c6f0000c3
:102d000061640000206c0000656e000067740000c4
:102d1000682900003a0000003e20000054720000c4
:102d2000616e00006d69000073730000696f000040
:102d30006e200000776500006e740000204f0000d8
:102d40004b0d0000003e0000204d000065730000a8
:102d500073610000676500002069000073200000b7
:102d60006c6f000073740000202e00002e2e0000f7
:102d70000d0000003e20000052650000747200004b
:102d8000616e00006d69000073730000696f0000e0
:102d90006e200000636f0000756e0000743a000042
:102da00020250000642000000d0a0000000d000036
:102db00000e70000e7e70000e7e70000d7d50000e4
:102dc000d7d70000d7aa0000bbcc0000000000004d
:042dd00020000000df
:020000040000fa
:102dd4000400fa00204798000040eb00004f780000
:102de4000040eb00104798000040eb00590007003a
:102df4000040eb00004f78001c0037002e4090008c
:102e04008080fb001e80fb00670010000088de004d
:102e140061006000004078000004e000030032001c
:102e240010c0b30055000700020037000040eb005b
:102e34005200070010c0b300460007001e40900077
:102e44000040400010479800560007000004e000ce
:102e5400030032001e4090000004a00010479800b8
:102e64000040eb003b0007001e4fe8001e407800c6
:102e7400e74f5000e1ff36001e4090000080fa004a
:102e8400000006000200fa00004f78001147980085
:102e94001e4090000080fb00e10f50000300320050
:102ea400e20f5000080032000e0037001e40780088
:102eb4000004e00002003200cd62a80009003700df
:102ec400cd62a900070037001e4078000004e0002e
:102ed40002003200cda2a80002003700cda2a90052
:102ee400000000000080fa00000006000200fa0062
:102ef400004f7800114798001e4090000080fb00ae
:102f0400e10f500003003200e20f500008003200cd
:102f14000e0037001e4078000004e000020032007a
:102f2400cd42a80009003700cd42a90007003700b0
:102f34001e4078000004e00002003200cd82a800a8
:102f440002003700cd82a900000000000080fa00d2
:102f5400000006000200fa00004f78001e407800ce
:102f64000004e00002003200cd02a8000100370096
:102f7400cd02a9000080fa00000006000200fa0059
:102f8400004f78001e4078000004e0000200320088
:102f9400cdc2a80001003700cdc2a9000080fa000c
:102fa400000006000000fa00501680004900de0010
:102fb400614060000080fa00000006000800fa008a
:102fc400881f78001007980021079800624798002e
:102fd4000040eb00004f78000a0037001e80fb0021
:102fe400ae009000008440001e80fb009e00900014
:102ff400008040001040780075ff0700004c780006
:103004001e4fe8006e4090009e40780080cf500034
:10301400f2ff39004f0478000080fa000000060037
:103024000600fa0010079800414798000040eb00a2
:10303400004f7800060037001e80fb009e009000c1
:10304400008040001040780061ff07001e4fe80038
:103054004e4090009e40780080cf5000f6ff39002b
:103064000080fa00000006000400fa00004f780017
:103074001147980022479800ae4090000040eb00b2
:103084009aff07009e4078007fc060000054a000b3
:103094004fff07001e4090004dff0700ae40900018
:1030a40010c0b30091ff07000080fa000000060082
:1030b4000600fa00004f7800110798004247980074
:1030c40053479800de4090000040eb0087ff070064
:1030d4009e4078007fc060003dff07004e41900095
:1030e4009e0090001e009000b4ff0700de40900098
:1030f40010c0b3007dff07000080fa000000060046
:103104000600fa00004f7800110798004247980023
:1031140053479800de4090000040eb0073ff070027
:103124009e4078007fc060000054a00028ff070084
:10313400ce4090001e009000b9ff0700de409000d2
:1031440010c0b30069ff07000080fa000000060009
:103154000400fa00004f78001147980022479800b5
:103164002e4190009e40780050c0b300beff07007f
:103174002e4190008040eb0010c1b300baff07005d
:103184002e4190009e40900020c1b300b6ff07007e
:103194002e4190008040eb0030c1b300b2ff070025
:1031a4002e4190008040eb0040c1b300aeff070009
:1031b4002e4190008040eb0050c1b300aaff0700ed
:1031c4002e4190008040eb0060c1b300a6ff0700d1
:1031d4002e41900061c2b30060c0b300a2ff07009b
:1031e4002e41900081c0b3000040eb009eff070019
:1031f4002e41900031c0b30010c0b3009aff070005
:103204002e41900031c0b30020c0b30096ff0700e8
:103214002e41900080c0eb0040c0b30092ff070035
:103224002e4190008040eb00c0c1b3008eff070028
:103234002e409000020007000080fa000000060003
:103244000200fa00004f78009e4078000040eb0036
:1032540026ff070020ceb300ddfe07009e40780065
:1032640010c0b30021ff07001e41780001c7b3005e
:1032740070c0b3007cff07009e4078000040eb0064
:1032840000ff07001e417800b1c0b3000040eb000e
:1032940075ff07009e40780010c0b300f9fe0700d8
:1032a4000080fa00000006000400fa00000f780015
:1032b40021479800ae4090000040eb00f1fe07006b
:1032c400ae41900052c0b3009e007800b0c0b3007d
:1032d4008bff0700ae40900010c0b300e9fe07006a
:1032e4000080fa00000006000400fa00000f7800d5
:1032f40021479800ae41900052c0b3009e00780070
:1033040000c1b3007eff07000080fa000000060041
:103314000400fa00204798002e4090007c0007002b
:10332400004f78009e80fb000004200000806000b5
:103334000000e0000200320010c0b30006003700b5
:103344002e409000060007000080fb000000e9000a
:103354004f00de00004078000080fa000000060004
:103364000400fa0020479800ae41900012c0b30058
:103374008e00780070c1b3004dff07001e40780036
:10338400614060000080fa00000006000400fa00ba
:1033940020479800ae4090000040eb00d3fe0700a9
:1033a40000c6b3008afe07000040eb0088fe070059
:1033b400004f7800ae40900010c0b300cbfe070071
:1033c4001e4078000080fa00000006000400fa00a5
:1033d400000f780021479800ae4090000040eb00b9
:1033e400c2fe070010c6b30079fe070042c0b30056
:1033f4009e0078001e007800f0fe0700ae409000aa
:1034040010c0b300b9fe07002e41900001c4b30000
:1034140070c0b30014ff07000080fa00000006002b
:103424000400fa0020479800ae41900012c0b30097
:103434008e00780080c0b3001dff07001e40780096
:103444006f406000004f78001e4078000080fa0052
:10345400000006000400fa00000f780021479800dd
:10346400ae4090000040eb0086fe07002e40900026
:103474004a000700ae4090000040eb009bfe0700ae
:1034840010ceb30052fe0700ae40900010c0b3004f
:1034940096fe0700ae4090000040eb0093fe07004c
:1034a40000cab3004afe070041c0b3001e00780002
:1034b400dbfe0700ae40900010c0b3008bfe070097
:1034c400ae40900010c0b3006efe07000080fa000a
:1034d400000006000400fa00204798002e409000e7
:1034e4000b000700004f78009e80fb0000032000c3
:1034f400008060000000e000020032000040eb00a9
:103504000100370010c0b3000080fa00000006007c
:103514000400fa0020479800ae4090000040eb0001
:1035240072fe070000c0eb0029fe0700004f780080
:10353400ae40900010c0b3006cfe07001e4078003f
:103544000080fa00000006000400fa0020479800fa
:103554002e409000eeff0700004f78009e80fb0095
:1035640000022000008060000000e0000200320041
:103574000040eb00070037001e80fb007000600075
:103584000000e0000200320010c0b3000100370068
:1035940000c0eb000080fa00000006000200fa0000
:1035a400004f78001e41780001c7b30070c0b3001b
:1035b400adfe07001e417800a1c0b3000040eb003f
:1035c400a9fe07000080fa00000006000200fa00cd
:1035d400004f78009e4078000040eb0029fe070071
:1035e4001e41780081c0b3000040eb009efe07003e
:1035f4000080fa00000006000800fa006047980006
:1036040001000900001feb00005feb005e00b10049
:10361400ee41900012c0b3008e0078000040eb0031
:10362400a3fe0700002b290096010700510020008b
:103634000e00780015020700c02d29009101070033
:1036440051c0b3000e0078003f010700ee41900026
:1036540012c0b3008e00780010c0b30094fe0700bf
:10366400f02d290087010700510020000e0078008a
:1036740006020700c02d29008201070051c0b300d3
:103684000e00780030010700ee41900012c0b30034
:103694008e00780020c0b30085fe0700e0302900ca
:1036a40078010700510020000e007800f7010700a0
:1036b400c02d29007301070051c0b3000e0078002b
:1036c40021010700ee41900012c0b3008e00780083
:1036d40030c0b30076fe0700e0322900690107001c
:1036e4003035290067010700510020000e007800e2
:1036f400e6010700c02d29006201070051c0b30094
:103704000e00780010010700ee41900012c0b300d3
:103714008e00780040c0b30065fe070030372900f2
:1037240058010700510020000e007800d70107005f
:10373400c02d29005301070051c0b3000e007800ca
:1037440001010700ee41900012c0b3008e00780022
:1037540050c0b30056fe0700503a29004901070043
:10376400510020000e007800c8010700c02d290078
:103774004401070051c0b3000e007800f2000700b6
:10378400ee41900012c0b3008e00780060c0b30018
:1037940047fe0700b03b29003a0107005100200012
:1037a4000e007800b9010700c02d2900350107007b
:1037b40051c0b3000e007800e3000700ee41900012
:1037c40012c0b3008e00780070c0b30038fe07004a
:1037d400b03d29002b010700510020000e007800a5
:1037e400aa010700c02d29002601070051c0b3001b
:1037f4000e007800d4000700ee41900052c0b300e0
:103804008e007800a0c0b30029fe0700703f290095
:103814001c010700510020000e0078009b010700e6
:10382400c02d29001701070051c0b3000e00780015
:10383400c5000700ee41900052c0b3008e0078002e
:10384400b0c0b3001afe0700104229000d010700a2
:10385400510020000e0078008c010700c02d2900c3
:103864000801070051c0b3000e007800b60007003d
:10387400ee41900052c0b3008e007800c0c0b30087
:103884000bfe0700b0442900fe0007005100200091
:103894000e0078007d010700c02d2900f900070003
:1038a40051c0b3000e007800a7000700ee4190005d
:1038b40052c0b3008e007800d0c0b300fcfd0700f6
:1038c40050472900ef000700510020000e00780047
:1038d4006e010700c02d2900ea00070051c0b300a3
:1038e4000e00780098000700ee41900052c0b3002b
:1038f4008e007800e0c0b300edfd0700f049290018
:10390400e0000700510020000e0078005f0107006e
:10391400c02d2900db00070051c0b3000e00780061
:1039240089000700ee41900052c0b3008e00780079
:10393400f0c0b300defd0700904c2900d100070061
:10394400510020000e00780050010700c02d29000e
:10395400cc00070051c0b3000e0078007a000700c5
:10396400ee41900052c0b3008e00780000c1b30055
:10397400cffd0700304f2900c2000700510020008e
:103984000e00780041010700c02d2900bd0007008a
:1039940051c0b3000e0078006b000700ee419000a8
:1039a40012c0b3008e00780010c1b300c0fd070040
:1039b400f0502900b3000700510020000e007800e9
:1039c40032010700c02d2900ae00070051c0b3002a
:1039d4000e0078005c000700ee41900012c0b300b6
:1039e4008e00780020c1b300b1fd07008054290087
:1039f400a4000700510020000e00780023010700f6
:103a0400c02d29009f00070051c0b3000e007800ac
:103a14004d000700ee41900012c0b3008e00780004
:103a240030c1b300a2fd070010582900950007001b
:103a3400510020000e00780014010700c02d290059
:103a44009000070051c0b3000e0078003e0007004c
:103a5400ee41900012c0b3008e00780040c1b30064
:103a640093fd0700a05b2900860007005100200099
:103a74000e00780005010700c02d29008100070011
:103a840051c0b3000e0078002f000700ee419000f3
:103a940012c0b3008e00780050c1b30084fd07004b
:103aa400305f290077000700510020000e007800e5
:103ab400f6000700c02d29007200070051c0b300b2
:103ac4000e00780020000700ee41900012c0b30001
:103ad4008e00780060c1b30075fd0700c062290044
:103ae40068000700510020000e007800e70007007e
:103af400c02d29006300070051c0b3000e007800f8
:103b040011000700ee41900012c0b3008e0078004f
:103b1400c0c1b30066fd07005066290059000700c4
:103b2400510020000e007800d8000700c02d2900a5
:103b34005400070051c0b3000e00780002000700d3
:103b44000080fa00000006000600fa001007980042
:103b5400414798000040eb00004f78000600370012
:103b64001e80fb009e009000008040008040eb001f
:103b7400014878001e4fe8004e4090009e407800b7
:103b840080cf5000f6ff39000080fa0000000600e4
:103b94000000fa0080002000801188003222ef002b
:103ba40030102000c011880031e2a8003342a80080
:103bb4000080fa00000006000000fa000000000087
:103bc40090118000610060000000e000fcff320002
:103bd40090118000620060000000e00001003200eb
:103be4003222a900b0118000004078000080fa0061
:103bf400000006000200fa00004f780000000000f8
:103c04009111800000202000008060000000e0008e
:103c1400fbff3a001e80fb00a01188000080fa0020
:103c2400000006000000fa00901180000080fa00f5
:103c3400000006000200fa00000f780000000000f7
:103c44009111800000102000008060000000e0005e
:103c5400fbff32008011800066006000e60f500018
:103c640003003a009e007800a11188000300370089
:103c7400f00f20001e006000a01188000080fa00f0
:103c8400000006000200fa00000f7800050037006b
:103c94001e007800104078000000fb001e0fe800b2
:103ca400e4ff07001e007800104078000004e000e4
:103cb400f7ff3a000080fa00000006000400fa0052
:103cc400100798001e009000c300de00500c220074
:103cd4000008b8004408de00004f78001e80fb0096
:103ce4000003b000d3ff07009e80fb0080c12f00bb
:103cf4000088b900000078009e0090000080400019
:103d0400100798001e009000c200de00b04721009a
:103d14000008b8000100d100004f78001e80fb00ad
:103d24000003b000c3ff07009e80fb00c0f92f0012
:103d34000088b900000078009e00900000804000d8
:103d4400100798009e009000d0cc2c000008b8000a
:103d54004308de00004f78001e80fb000003b00023
:103d6400b4ff07009e80fb0060ff2f000088b900ad
:103d7400000078009e00900000804000100798002a
:103d84001e0090000003b000aaff07000080fa00a4
:103d9400000006000400fa00100798000003200049
:103da400a4ff070080072000a2ff07001e00900068
:103db4004400de00004f78001e4078000b0007002e
:103dc4000080fb009bff07001e009000004078006d
:103dd4006f4f60001e407800040007000080fb0065
:103de40094ff07000080fa00000006000200fa00b9
:103df400004f78001e407800e94f500003003e0059
:103e040001c3b3001ec040001e0037001e80fb002b
:103e1400ec0f500012003200ec0f500005003c0083
:103e2400ea0f50000a003200eb0f50000a00320083
:103e340013003700ee0f50000d003200ee0f50005b
:103e440009003500ef0f50000b0032000c00370062
:103e540010c4b3000b00370020c4b30009003700be
:103e640030c4b3000700370040c4b3000500370076
:103e740050c4b3000300370060c4b300010037002e
:103e8400000037000080fa00000006000600fa0077
:103e940010079800414798000040eb00004f78005d
:103ea4000f0037001e80fb009e0090000080400041
:103eb400104078000004e000080032001e80fb007f
:103ec4009e00900000804000104078000080fb00bd
:103ed400b0ff0700806e29006aff07001e4fe8004c
:103ee4004e4090009e40780080cf5000edff390096
:103ef4000080fa00000006000000fa00d003200051
:103f0400101288001000200020128800c000280031
:103f1400001288000080fa00000006000400fa0085
:103f2400000f7800110798000000000000128000c4
:103f3400620060000000e000fcff3a001e00780010
:103f4400104078000080fb00401288000000000050
:103f54000112800000022000008060000000e000e8
:103f6400fbff3a0040128000804078001e00900061
:103f7400014878000080fa00000006001800fa00ea
:103f8400100f9800210f9800320f98000000eb00ea
:103f9400000f78000000eb00100798000000eb0011
:103fa400700798000000eb00000f9800100020003c
:103fb400600798001e0890000000e00005003a0029
:103fc4000000eb005007980070004700200798009d
:103fd40004003700ee009000510798009e089000fe
:103fe400210798003e0890000000e00005003a0018
:103ff4000000eb00400798006e004700300798006f
:1040040005003700ee00900041079800be089000bc
:104014003107980000000000001280006200600078
:104024000000e000fcff3a001d0037000012800091
:10403400620060000000e00009003a002e009000d9
:10404400104078000080fb0040128800ae00900011
:104054005e00900000804000200798001e0fe800da
:104064000112800000022000008060000000e000d7
:104074000b003a0040128000804078003e0090001f
:1040840001487800be0090004e009000008040007f
:10409400300798001e0090000000e8001007980008
:1040a4002e0890009e007800808f5000dfff3900ba
:1040b4001000370001128000000220000080600020
:1040c4000000e0000b003a004012800080407800bd
:1040d4003e00900001487800be0090004e00900021
:1040e40000804000300798001e0090000000e800a7
:1040f400100798009e0090002e089000808f5000ba
:10410400ecff39001e0078000080fa000000060071
:104114000400fa00204798000e80e8008e00780022
:104124007eff07001e4078000080fa0000000600b1
:104134000600fa00000f7800110798002207980083
:104144002e0190009e0090001e0078008bff070057
:104154000080fa00000006000000fa00111280003e
:1041640000402000008060000000e00002003a00ef
:104174000000eb0001003700100020000080fa006e
:10418400000006000000fa00001280000080fa001f
:044194000000060021
:020000040000fa
:104198000008000088000000820000000100000004
:1041a80000260800270826000826080026082600fa
:1041b80008160800000000000000000000000000d1
:1041c80000000000000000000000000000000000e7
:1041d8000002080001014e00084f08004e084e007a
:1041e800084e08004e083e000800000000000000cd
:1041f80000000000000000000000000000000000b7
:1042080000000000000002000802020076087700a3
:104218000876080076087600087608006608000028
:104228000000000000000000000000000000000086
:104238000000000000000000000000000008280046
:104248000850080000000000000000000000000006
:1042580000000000c8080000020000008000000004
:10426800aa0800001a00000082000000686a6c00ba
:10427800747a4c00000001000002000004000800ed
:1042880000100000000020002b2d2300300000004b
:10429800ca080000020000008200000004000000bc
:1042a800c408000004000000800000008808000026
:1042b8002200000082000000303132003334350023
:1042c8003637380039414200434445004600300043
:1042d80031323300343536003738390061626300d3
:1042e8006465660000000000cc08000002000000c1
:0842f80080000000000000003e
:020000040000fa
:104300000000fa00cc22ef00d422ef00dc22ef0004
:10431000e422ef00ec22ef00f422ef00f0ef2b009c
:10432000401688000000290080168800f0ff200059
:10433000c0168800f00f200000178800f00720004a
:1043400040178800c038200080178800e802a900c4
:10435000c902a900c922a800c942a900c962a900ce
:10436000c982a900c9a2a900c9c2a9005620ef00ac
:104370005820ef005a20ef005c20ef005e20ef0095
:104380006020ef006e20ef007020ef007220ef0041
:104390007420ef007620ef007820ef00ce22ef00af
:1043a000d622ef00de22ef00e622ef00ee22ef0041
:1043b000f622ef00f0cc2b001027880000cc200064
:1043c00030278800000f20004027880000302000a0
:1043d00060278800113a8000f00b20000081600007
:1043e00060042000710520002374200080497800bb
:1043f0008149780082497800a1368000f00f2c00b6
:10440000808060000050200001007000a03688000d
:104410003135800000fc2f0000806000a001b30057
:1044200030358800103a8000000178000260a0005a
:10443000600420007105200023742000804978006a
:1044400081497800824978000080fa000000060067
:104450001000fa004c000700cd42a800cd62a90070
:10446000e1004700926d290004000900b25878006d
:10447000e6004700e26d290004000900b258780008
:10448000eb004700326e290003000900b2587800a3
:104490000040eb00004f780000d0220011132000f4
:1044a0004e00070012c0b30041c0b30040c1b300ca
:1044b00028fb07000e00e80011c0b3008bfb0700cb
:1044c0006600470011c0b30078fb070010c0b300be
:1044d0004afc07006e4890000040e800604f9800da
:1044e0006b00470011c0b300dbfb070000000000b9
:1044f00010c0b300f8fb07000004e000fcff3a0026
:1045000010c0b30011fc0700004f78001e40780077
:104510000004e00003003a00c068290097f007009b
:10452000050037001e407800e14f500002003a00bd
:10453000306a290091f0070010c0b300b9fb0700f2
:10454000004f78001e80fb00801f7800a06b2900c0
:10455000801f780018f20700e4875700706d29006b
:1045600086f00700ec02a8000068290081092000fd
:104570001a000700ec02a900006829008109200048
:1045800016000700d3ff37000000fa005cff0700a9
:10459000040007001f0007007efd07000080fa00ee
:1045a000000006000000fa000001eb00600420009b
:1045b000710520002374200080497800814978002b
:1045c0008249780000102300203a88004827ef0035
:0c45d0004e27ef000080fa0000000600fb
:020000040000fa
:1045dc00f03fb1000180b10006003500ee03090088
:1045ec0000000000403fb1000180b100fbff3d0026
:1045fc001000b000203fb000020035000080090020
:08460c000000000000000600a0
:020000040000fa
:0c4614000000fa000080fa000000060020
:020000040000fa
:020000040001f9
:0457f000ffff0000b7
:020000040000fa
:020000040001f9
:0457f400fffe0000b4
:020000040000fa
:020000040001f9
:0457f800bee200000d
:020000040000fa
:020000040001f9
:0457fc009f3d0000cd
:00000001FF
